{
  "_format": "hh-sol-artifact-1",
  "contractName": "SimpleNFT",
  "sourceName": "contracts/share.sol",
  "abi": [
    {
      "inputs": [],
      "stateMutability": "nonpayable",
      "type": "constructor"
    },
    {
      "anonymous": false,
      "inputs": [
        {
          "indexed": true,
          "internalType": "address",
          "name": "owner",
          "type": "address"
        },
        {
          "indexed": true,
          "internalType": "address",
          "name": "approved",
          "type": "address"
        },
        {
          "indexed": true,
          "internalType": "uint256",
          "name": "tokenId",
          "type": "uint256"
        }
      ],
      "name": "Approval",
      "type": "event"
    },
    {
      "anonymous": false,
      "inputs": [
        {
          "indexed": true,
          "internalType": "address",
          "name": "owner",
          "type": "address"
        },
        {
          "indexed": true,
          "internalType": "address",
          "name": "operator",
          "type": "address"
        },
        {
          "indexed": false,
          "internalType": "bool",
          "name": "approved",
          "type": "bool"
        }
      ],
      "name": "ApprovalForAll",
      "type": "event"
    },
    {
      "anonymous": false,
      "inputs": [
        {
          "indexed": true,
          "internalType": "address",
          "name": "from",
          "type": "address"
        },
        {
          "indexed": true,
          "internalType": "address",
          "name": "to",
          "type": "address"
        },
        {
          "indexed": true,
          "internalType": "uint256",
          "name": "tokenId",
          "type": "uint256"
        }
      ],
      "name": "Transfer",
      "type": "event"
    },
    {
      "inputs": [
        {
          "internalType": "uint256",
          "name": "add",
          "type": "uint256"
        }
      ],
      "name": "addSupply",
      "outputs": [],
      "stateMutability": "nonpayable",
      "type": "function"
    },
    {
      "inputs": [
        {
          "internalType": "address",
          "name": "to",
          "type": "address"
        },
        {
          "internalType": "uint256",
          "name": "tokenId",
          "type": "uint256"
        }
      ],
      "name": "approve",
      "outputs": [],
      "stateMutability": "nonpayable",
      "type": "function"
    },
    {
      "inputs": [
        {
          "internalType": "address",
          "name": "owner",
          "type": "address"
        }
      ],
      "name": "balanceOf",
      "outputs": [
        {
          "internalType": "uint256",
          "name": "",
          "type": "uint256"
        }
      ],
      "stateMutability": "view",
      "type": "function"
    },
    {
      "inputs": [
        {
          "internalType": "uint256",
          "name": "tokenId",
          "type": "uint256"
        }
      ],
      "name": "getApproved",
      "outputs": [
        {
          "internalType": "address",
          "name": "",
          "type": "address"
        }
      ],
      "stateMutability": "view",
      "type": "function"
    },
    {
      "inputs": [
        {
          "internalType": "address",
          "name": "owner",
          "type": "address"
        },
        {
          "internalType": "address",
          "name": "operator",
          "type": "address"
        }
      ],
      "name": "isApprovedForAll",
      "outputs": [
        {
          "internalType": "bool",
          "name": "",
          "type": "bool"
        }
      ],
      "stateMutability": "view",
      "type": "function"
    },
    {
      "inputs": [
        {
          "internalType": "address",
          "name": "forUser",
          "type": "address"
        },
        {
          "internalType": "string",
          "name": "tokenURI",
          "type": "string"
        }
      ],
      "name": "mintTokens",
      "outputs": [
        {
          "internalType": "uint256",
          "name": "",
          "type": "uint256"
        }
      ],
      "stateMutability": "nonpayable",
      "type": "function"
    },
    {
      "inputs": [],
      "name": "name",
      "outputs": [
        {
          "internalType": "string",
          "name": "",
          "type": "string"
        }
      ],
      "stateMutability": "view",
      "type": "function"
    },
    {
      "inputs": [
        {
          "internalType": "uint256",
          "name": "tokenId",
          "type": "uint256"
        }
      ],
      "name": "ownerOf",
      "outputs": [
        {
          "internalType": "address",
          "name": "",
          "type": "address"
        }
      ],
      "stateMutability": "view",
      "type": "function"
    },
    {
      "inputs": [
        {
          "internalType": "address",
          "name": "from",
          "type": "address"
        },
        {
          "internalType": "address",
          "name": "to",
          "type": "address"
        },
        {
          "internalType": "uint256",
          "name": "tokenId",
          "type": "uint256"
        }
      ],
      "name": "safeTransferFrom",
      "outputs": [],
      "stateMutability": "nonpayable",
      "type": "function"
    },
    {
      "inputs": [
        {
          "internalType": "address",
          "name": "from",
          "type": "address"
        },
        {
          "internalType": "address",
          "name": "to",
          "type": "address"
        },
        {
          "internalType": "uint256",
          "name": "tokenId",
          "type": "uint256"
        },
        {
          "internalType": "bytes",
          "name": "data",
          "type": "bytes"
        }
      ],
      "name": "safeTransferFrom",
      "outputs": [],
      "stateMutability": "nonpayable",
      "type": "function"
    },
    {
      "inputs": [
        {
          "internalType": "address",
          "name": "operator",
          "type": "address"
        },
        {
          "internalType": "bool",
          "name": "approved",
          "type": "bool"
        }
      ],
      "name": "setApprovalForAll",
      "outputs": [],
      "stateMutability": "nonpayable",
      "type": "function"
    },
    {
      "inputs": [
        {
          "internalType": "bytes4",
          "name": "interfaceId",
          "type": "bytes4"
        }
      ],
      "name": "supportsInterface",
      "outputs": [
        {
          "internalType": "bool",
          "name": "",
          "type": "bool"
        }
      ],
      "stateMutability": "view",
      "type": "function"
    },
    {
      "inputs": [],
      "name": "symbol",
      "outputs": [
        {
          "internalType": "string",
          "name": "",
          "type": "string"
        }
      ],
      "stateMutability": "view",
      "type": "function"
    },
    {
      "inputs": [
        {
          "internalType": "uint256",
          "name": "tokenId",
          "type": "uint256"
        }
      ],
      "name": "tokenURI",
      "outputs": [
        {
          "internalType": "string",
          "name": "",
          "type": "string"
        }
      ],
      "stateMutability": "view",
      "type": "function"
    },
    {
      "inputs": [],
      "name": "totalMinted",
      "outputs": [
        {
          "internalType": "uint256",
          "name": "",
          "type": "uint256"
        }
      ],
      "stateMutability": "view",
      "type": "function"
    },
    {
      "inputs": [
        {
          "internalType": "address",
          "name": "from",
          "type": "address"
        },
        {
          "internalType": "address",
          "name": "to",
          "type": "address"
        },
        {
          "internalType": "uint256",
          "name": "tokenId",
          "type": "uint256"
        }
      ],
      "name": "transferFrom",
      "outputs": [],
      "stateMutability": "nonpayable",
      "type": "function"
    }
  ],
  "bytecode": "0x6080604052620186a06008553480156200001857600080fd5b506040805180820182526009815268436c6f76657220465360b81b60208083019182528351808501909452600384526243465360e81b908401528151919291620000659160009162000096565b5080516200007b90600190602084019062000096565b5050600980546001600160a01b031916331790555062000179565b828054620000a4906200013c565b90600052602060002090601f016020900481019282620000c8576000855562000113565b82601f10620000e357805160ff191683800117855562000113565b8280016001018555821562000113579182015b8281111562000113578251825591602001919060010190620000f6565b506200012192915062000125565b5090565b5b8082111562000121576000815560010162000126565b600181811c908216806200015157607f821691505b602082108114156200017357634e487b7160e01b600052602260045260246000fd5b50919050565b61169380620001896000396000f3fe608060405234801561001057600080fd5b50600436106101005760003560e01c80636352211e11610097578063a2309ff811610066578063a2309ff81461021d578063b88d4fde14610225578063c87b56dd14610238578063e985e9c51461024b57600080fd5b80636352211e146101dc57806370a08231146101ef57806395d89b4114610202578063a22cb4651461020a57600080fd5b806323b872dd116100d357806323b872dd1461018257806340753a761461019557806342842e0e146101a8578063510a3ea9146101bb57600080fd5b806301ffc9a71461010557806306fdde031461012d578063081812fc14610142578063095ea7b31461016d575b600080fd5b610118610113366004611378565b610287565b60405190151581526020015b60405180910390f35b6101356102d9565b6040516101249190611463565b6101556101503660046113b2565b61036b565b6040516001600160a01b039091168152602001610124565b61018061017b36600461134e565b610392565b005b6101806101903660046111f8565b6104ad565b6101806101a33660046113b2565b6104de565b6101806101b63660046111f8565b610539565b6101ce6101c93660046112ec565b610554565b604051908152602001610124565b6101556101ea3660046113b2565b6105dc565b6101ce6101fd3660046111aa565b61063c565b6101356106c2565b6101806102183660046112b0565b6106d1565b6101ce6106e0565b610180610233366004611234565b6106f0565b6101356102463660046113b2565b610728565b6101186102593660046111c5565b6001600160a01b03918216600090815260056020908152604080832093909416825291909152205460ff1690565b60006001600160e01b031982166380ac58cd60e01b14806102b857506001600160e01b03198216635b5e139f60e01b145b806102d357506301ffc9a760e01b6001600160e01b03198316145b92915050565b6060600080546102e890611585565b80601f016020809104026020016040519081016040528092919081815260200182805461031490611585565b80156103615780601f1061033657610100808354040283529160200191610361565b820191906000526020600020905b81548152906001019060200180831161034457829003601f168201915b5050505050905090565b600061037682610839565b506000908152600460205260409020546001600160a01b031690565b600061039d826105dc565b9050806001600160a01b0316836001600160a01b031614156104105760405162461bcd60e51b815260206004820152602160248201527f4552433732313a20617070726f76616c20746f2063757272656e74206f776e656044820152603960f91b60648201526084015b60405180910390fd5b336001600160a01b038216148061042c575061042c8133610259565b61049e5760405162461bcd60e51b815260206004820152603e60248201527f4552433732313a20617070726f76652063616c6c6572206973206e6f7420746f60448201527f6b656e206f776e6572206e6f7220617070726f76656420666f7220616c6c00006064820152608401610407565b6104a8838361089b565b505050565b6104b73382610909565b6104d35760405162461bcd60e51b8152600401610407906114c8565b6104a8838383610987565b6009546001600160a01b031633146105255760405162461bcd60e51b815260206004820152600a60248201526927b7363c9037bbb732b960b11b6044820152606401610407565b806008546105339190611516565b60085550565b6104a8838383604051806020016040528060008152506106f0565b600061055f60075490565b60085410156105a65760405162461bcd60e51b8152602060048201526013602482015272151bdd185b08131a5b5a5d0814995858da1959606a1b6044820152606401610407565b60006105b160075490565b90506105bd8482610b23565b6105c78184610c65565b6105d5600780546001019055565b9392505050565b6000818152600260205260408120546001600160a01b0316806102d35760405162461bcd60e51b8152602060048201526018602482015277115490cdcc8c4e881a5b9d985b1a59081d1bdad95b88125160421b6044820152606401610407565b60006001600160a01b0382166106a65760405162461bcd60e51b815260206004820152602960248201527f4552433732313a2061646472657373207a65726f206973206e6f7420612076616044820152683634b21037bbb732b960b91b6064820152608401610407565b506001600160a01b031660009081526003602052604090205490565b6060600180546102e890611585565b6106dc338383610cff565b5050565b60006106eb60075490565b905090565b6106fa3383610909565b6107165760405162461bcd60e51b8152600401610407906114c8565b61072284848484610dce565b50505050565b606061073382610839565b6000828152600660205260408120805461074c90611585565b80601f016020809104026020016040519081016040528092919081815260200182805461077890611585565b80156107c55780601f1061079a576101008083540402835291602001916107c5565b820191906000526020600020905b8154815290600101906020018083116107a857829003601f168201915b5050505050905060006107e360408051602081019091526000815290565b90508051600014156107f6575092915050565b8151156108285780826040516020016108109291906113f7565b60405160208183030381529060405292505050919050565b61083184610e01565b949350505050565b6000818152600260205260409020546001600160a01b03166108985760405162461bcd60e51b8152602060048201526018602482015277115490cdcc8c4e881a5b9d985b1a59081d1bdad95b88125160421b6044820152606401610407565b50565b600081815260046020526040902080546001600160a01b0319166001600160a01b03841690811790915581906108d0826105dc565b6001600160a01b03167f8c5be1e5ebec7d5bd14f71427d1e84f3dd0314c0f7b2291e5b200ac8c7c3b92560405160405180910390a45050565b600080610915836105dc565b9050806001600160a01b0316846001600160a01b0316148061095c57506001600160a01b0380821660009081526005602090815260408083209388168352929052205460ff165b806108315750836001600160a01b03166109758461036b565b6001600160a01b031614949350505050565b826001600160a01b031661099a826105dc565b6001600160a01b0316146109fe5760405162461bcd60e51b815260206004820152602560248201527f4552433732313a207472616e736665722066726f6d20696e636f72726563742060448201526437bbb732b960d91b6064820152608401610407565b6001600160a01b038216610a605760405162461bcd60e51b8152602060048201526024808201527f4552433732313a207472616e7366657220746f20746865207a65726f206164646044820152637265737360e01b6064820152608401610407565b610a6b60008261089b565b6001600160a01b0383166000908152600360205260408120805460019290610a94908490611542565b90915550506001600160a01b0382166000908152600360205260408120805460019290610ac2908490611516565b909155505060008181526002602052604080822080546001600160a01b0319166001600160a01b0386811691821790925591518493918716917fddf252ad1be2c89b69c2b068fc378daa952ba7f163c4a11628f55a4df523b3ef91a4505050565b6001600160a01b038216610b795760405162461bcd60e51b815260206004820181905260248201527f4552433732313a206d696e7420746f20746865207a65726f20616464726573736044820152606401610407565b6000818152600260205260409020546001600160a01b031615610bde5760405162461bcd60e51b815260206004820152601c60248201527f4552433732313a20746f6b656e20616c7265616479206d696e746564000000006044820152606401610407565b6001600160a01b0382166000908152600360205260408120805460019290610c07908490611516565b909155505060008181526002602052604080822080546001600160a01b0319166001600160a01b03861690811790915590518392907fddf252ad1be2c89b69c2b068fc378daa952ba7f163c4a11628f55a4df523b3ef908290a45050565b6000828152600260205260409020546001600160a01b0316610ce05760405162461bcd60e51b815260206004820152602e60248201527f45524337323155524953746f726167653a2055524920736574206f66206e6f6e60448201526d32bc34b9ba32b73a103a37b5b2b760911b6064820152608401610407565b600082815260066020908152604090912082516104a89284019061107f565b816001600160a01b0316836001600160a01b03161415610d615760405162461bcd60e51b815260206004820152601960248201527f4552433732313a20617070726f766520746f2063616c6c6572000000000000006044820152606401610407565b6001600160a01b03838116600081815260056020908152604080832094871680845294825291829020805460ff191686151590811790915591519182527f17307eab39ab6107e8899845ad3d59bd9653f200f220920489ca2b5937696c31910160405180910390a3505050565b610dd9848484610987565b610de584848484610e74565b6107225760405162461bcd60e51b815260040161040790611476565b6060610e0c82610839565b6000610e2360408051602081019091526000815290565b90506000815111610e4357604051806020016040528060008152506105d5565b80610e4d84610f81565b604051602001610e5e9291906113f7565b6040516020818303038152906040529392505050565b60006001600160a01b0384163b15610f7657604051630a85bd0160e11b81526001600160a01b0385169063150b7a0290610eb8903390899088908890600401611426565b602060405180830381600087803b158015610ed257600080fd5b505af1925050508015610f02575060408051601f3d908101601f19168201909252610eff91810190611395565b60015b610f5c573d808015610f30576040519150601f19603f3d011682016040523d82523d6000602084013e610f35565b606091505b508051610f545760405162461bcd60e51b815260040161040790611476565b805181602001fd5b6001600160e01b031916630a85bd0160e11b149050610831565b506001949350505050565b606081610fa55750506040805180820190915260018152600360fc1b602082015290565b8160005b8115610fcf5780610fb9816115c0565b9150610fc89050600a8361152e565b9150610fa9565b60008167ffffffffffffffff811115610fea57610fea611631565b6040519080825280601f01601f191660200182016040528015611014576020820181803683370190505b5090505b841561083157611029600183611542565b9150611036600a866115db565b611041906030611516565b60f81b8183815181106110565761105661161b565b60200101906001600160f81b031916908160001a905350611078600a8661152e565b9450611018565b82805461108b90611585565b90600052602060002090601f0160209004810192826110ad57600085556110f3565b82601f106110c657805160ff19168380011785556110f3565b828001600101855582156110f3579182015b828111156110f35782518255916020019190600101906110d8565b506110ff929150611103565b5090565b5b808211156110ff5760008155600101611104565b600067ffffffffffffffff8084111561113357611133611631565b604051601f8501601f19908116603f0116810190828211818310171561115b5761115b611631565b8160405280935085815286868601111561117457600080fd5b858560208301376000602087830101525050509392505050565b80356001600160a01b03811681146111a557600080fd5b919050565b6000602082840312156111bc57600080fd5b6105d58261118e565b600080604083850312156111d857600080fd5b6111e18361118e565b91506111ef6020840161118e565b90509250929050565b60008060006060848603121561120d57600080fd5b6112168461118e565b92506112246020850161118e565b9150604084013590509250925092565b6000806000806080858703121561124a57600080fd5b6112538561118e565b93506112616020860161118e565b925060408501359150606085013567ffffffffffffffff81111561128457600080fd5b8501601f8101871361129557600080fd5b6112a487823560208401611118565b91505092959194509250565b600080604083850312156112c357600080fd5b6112cc8361118e565b9150602083013580151581146112e157600080fd5b809150509250929050565b600080604083850312156112ff57600080fd5b6113088361118e565b9150602083013567ffffffffffffffff81111561132457600080fd5b8301601f8101851361133557600080fd5b61134485823560208401611118565b9150509250929050565b6000806040838503121561136157600080fd5b61136a8361118e565b946020939093013593505050565b60006020828403121561138a57600080fd5b81356105d581611647565b6000602082840312156113a757600080fd5b81516105d581611647565b6000602082840312156113c457600080fd5b5035919050565b600081518084526113e3816020860160208601611559565b601f01601f19169290920160200192915050565b60008351611409818460208801611559565b83519083019061141d818360208801611559565b01949350505050565b6001600160a01b0385811682528416602082015260408101839052608060608201819052600090611459908301846113cb565b9695505050505050565b6020815260006105d560208301846113cb565b60208082526032908201527f4552433732313a207472616e7366657220746f206e6f6e20455243373231526560408201527131b2b4bb32b91034b6b83632b6b2b73a32b960711b606082015260800190565b6020808252602e908201527f4552433732313a2063616c6c6572206973206e6f7420746f6b656e206f776e6560408201526d1c881b9bdc88185c1c1c9bdd995960921b606082015260800190565b60008219821115611529576115296115ef565b500190565b60008261153d5761153d611605565b500490565b600082821015611554576115546115ef565b500390565b60005b8381101561157457818101518382015260200161155c565b838111156107225750506000910152565b600181811c9082168061159957607f821691505b602082108114156115ba57634e487b7160e01b600052602260045260246000fd5b50919050565b60006000198214156115d4576115d46115ef565b5060010190565b6000826115ea576115ea611605565b500690565b634e487b7160e01b600052601160045260246000fd5b634e487b7160e01b600052601260045260246000fd5b634e487b7160e01b600052603260045260246000fd5b634e487b7160e01b600052604160045260246000fd5b6001600160e01b03198116811461089857600080fdfea26469706673582212201254d4cac59806e9287c0a45f7f331d6d726aa1caf59de25e2cdcea97ffa191a64736f6c63430008070033",
  "linkReferences": {},
  "deployedLinkReferences": {}
}