{
  "_format": "hh-sol-artifact-1",
  "contractName": "SimpleNFT",
  "sourceName": "contracts/share.sol",
  "abi": [
    {
      "inputs": [],
      "stateMutability": "nonpayable",
      "type": "constructor"
    },
    {
      "anonymous": false,
      "inputs": [
        {
          "indexed": true,
          "internalType": "address",
          "name": "owner",
          "type": "address"
        },
        {
          "indexed": true,
          "internalType": "address",
          "name": "approved",
          "type": "address"
        },
        {
          "indexed": true,
          "internalType": "uint256",
          "name": "tokenId",
          "type": "uint256"
        }
      ],
      "name": "Approval",
      "type": "event"
    },
    {
      "anonymous": false,
      "inputs": [
        {
          "indexed": true,
          "internalType": "address",
          "name": "owner",
          "type": "address"
        },
        {
          "indexed": true,
          "internalType": "address",
          "name": "operator",
          "type": "address"
        },
        {
          "indexed": false,
          "internalType": "bool",
          "name": "approved",
          "type": "bool"
        }
      ],
      "name": "ApprovalForAll",
      "type": "event"
    },
    {
      "anonymous": false,
      "inputs": [
        {
          "indexed": true,
          "internalType": "address",
          "name": "from",
          "type": "address"
        },
        {
          "indexed": true,
          "internalType": "address",
          "name": "to",
          "type": "address"
        },
        {
          "indexed": true,
          "internalType": "uint256",
          "name": "tokenId",
          "type": "uint256"
        }
      ],
      "name": "Transfer",
      "type": "event"
    },
    {
      "inputs": [
        {
          "internalType": "uint256",
          "name": "add",
          "type": "uint256"
        }
      ],
      "name": "addSupply",
      "outputs": [],
      "stateMutability": "nonpayable",
      "type": "function"
    },
    {
      "inputs": [
        {
          "internalType": "address",
          "name": "to",
          "type": "address"
        },
        {
          "internalType": "uint256",
          "name": "tokenId",
          "type": "uint256"
        }
      ],
      "name": "approve",
      "outputs": [],
      "stateMutability": "nonpayable",
      "type": "function"
    },
    {
      "inputs": [
        {
          "internalType": "address",
          "name": "owner",
          "type": "address"
        }
      ],
      "name": "balanceOf",
      "outputs": [
        {
          "internalType": "uint256",
          "name": "",
          "type": "uint256"
        }
      ],
      "stateMutability": "view",
      "type": "function"
    },
    {
      "inputs": [
        {
          "internalType": "uint256",
          "name": "tokenId",
          "type": "uint256"
        }
      ],
      "name": "getApproved",
      "outputs": [
        {
          "internalType": "address",
          "name": "",
          "type": "address"
        }
      ],
      "stateMutability": "view",
      "type": "function"
    },
    {
      "inputs": [
        {
          "internalType": "address",
          "name": "owner",
          "type": "address"
        },
        {
          "internalType": "address",
          "name": "operator",
          "type": "address"
        }
      ],
      "name": "isApprovedForAll",
      "outputs": [
        {
          "internalType": "bool",
          "name": "",
          "type": "bool"
        }
      ],
      "stateMutability": "view",
      "type": "function"
    },
    {
      "inputs": [
        {
          "internalType": "address[]",
          "name": "forUser",
          "type": "address[]"
        },
        {
          "internalType": "string",
          "name": "tokenURI",
          "type": "string"
        }
      ],
      "name": "mintTokens",
      "outputs": [
        {
          "internalType": "bool",
          "name": "",
          "type": "bool"
        }
      ],
      "stateMutability": "nonpayable",
      "type": "function"
    },
    {
      "inputs": [],
      "name": "name",
      "outputs": [
        {
          "internalType": "string",
          "name": "",
          "type": "string"
        }
      ],
      "stateMutability": "view",
      "type": "function"
    },
    {
      "inputs": [
        {
          "internalType": "uint256",
          "name": "tokenId",
          "type": "uint256"
        }
      ],
      "name": "ownerOf",
      "outputs": [
        {
          "internalType": "address",
          "name": "",
          "type": "address"
        }
      ],
      "stateMutability": "view",
      "type": "function"
    },
    {
      "inputs": [
        {
          "internalType": "address",
          "name": "from",
          "type": "address"
        },
        {
          "internalType": "address",
          "name": "to",
          "type": "address"
        },
        {
          "internalType": "uint256",
          "name": "tokenId",
          "type": "uint256"
        }
      ],
      "name": "safeTransferFrom",
      "outputs": [],
      "stateMutability": "nonpayable",
      "type": "function"
    },
    {
      "inputs": [
        {
          "internalType": "address",
          "name": "from",
          "type": "address"
        },
        {
          "internalType": "address",
          "name": "to",
          "type": "address"
        },
        {
          "internalType": "uint256",
          "name": "tokenId",
          "type": "uint256"
        },
        {
          "internalType": "bytes",
          "name": "data",
          "type": "bytes"
        }
      ],
      "name": "safeTransferFrom",
      "outputs": [],
      "stateMutability": "nonpayable",
      "type": "function"
    },
    {
      "inputs": [
        {
          "internalType": "address",
          "name": "operator",
          "type": "address"
        },
        {
          "internalType": "bool",
          "name": "approved",
          "type": "bool"
        }
      ],
      "name": "setApprovalForAll",
      "outputs": [],
      "stateMutability": "nonpayable",
      "type": "function"
    },
    {
      "inputs": [
        {
          "internalType": "bytes4",
          "name": "interfaceId",
          "type": "bytes4"
        }
      ],
      "name": "supportsInterface",
      "outputs": [
        {
          "internalType": "bool",
          "name": "",
          "type": "bool"
        }
      ],
      "stateMutability": "view",
      "type": "function"
    },
    {
      "inputs": [],
      "name": "symbol",
      "outputs": [
        {
          "internalType": "string",
          "name": "",
          "type": "string"
        }
      ],
      "stateMutability": "view",
      "type": "function"
    },
    {
      "inputs": [
        {
          "internalType": "uint256",
          "name": "tokenId",
          "type": "uint256"
        }
      ],
      "name": "tokenURI",
      "outputs": [
        {
          "internalType": "string",
          "name": "",
          "type": "string"
        }
      ],
      "stateMutability": "view",
      "type": "function"
    },
    {
      "inputs": [],
      "name": "totalMinted",
      "outputs": [
        {
          "internalType": "uint256",
          "name": "",
          "type": "uint256"
        }
      ],
      "stateMutability": "view",
      "type": "function"
    },
    {
      "inputs": [
        {
          "internalType": "address",
          "name": "from",
          "type": "address"
        },
        {
          "internalType": "address",
          "name": "to",
          "type": "address"
        },
        {
          "internalType": "uint256",
          "name": "tokenId",
          "type": "uint256"
        }
      ],
      "name": "transferFrom",
      "outputs": [],
      "stateMutability": "nonpayable",
      "type": "function"
    }
  ],
  "bytecode": "0x6080604052620186a06008553480156200001857600080fd5b506040805180820182526009815268436c6f76657220465360b81b60208083019182528351808501909452600384526243465360e81b908401528151919291620000659160009162000096565b5080516200007b90600190602084019062000096565b5050600980546001600160a01b031916331790555062000179565b828054620000a4906200013c565b90600052602060002090601f016020900481019282620000c8576000855562000113565b82601f10620000e357805160ff191683800117855562000113565b8280016001018555821562000113579182015b8281111562000113578251825591602001919060010190620000f6565b506200012192915062000125565b5090565b5b8082111562000121576000815560010162000126565b600181811c908216806200015157607f821691505b602082108114156200017357634e487b7160e01b600052602260045260246000fd5b50919050565b61177680620001896000396000f3fe608060405234801561001057600080fd5b50600436106101005760003560e01c80636352211e11610097578063a2309ff811610066578063a2309ff81461021d578063b88d4fde14610225578063c87b56dd14610238578063e985e9c51461024b57600080fd5b80636352211e146101ce57806370a08231146101e157806395d89b4114610202578063a22cb4651461020a57600080fd5b8063095ea7b3116100d3578063095ea7b31461018057806323b872dd1461019557806340753a76146101a857806342842e0e146101bb57600080fd5b8063011af71d1461010557806301ffc9a71461012d57806306fdde0314610140578063081812fc14610155575b600080fd5b610118610113366004611354565b610287565b60405190151581526020015b60405180910390f35b61011861013b36600461142a565b61034f565b6101486103a1565b6040516101249190611515565b610168610163366004611464565b610433565b6040516001600160a01b039091168152602001610124565b61019361018e36600461132a565b61045a565b005b6101936101a3366004611236565b610570565b6101936101b6366004611464565b6105a1565b6101936101c9366004611236565b6105fc565b6101686101dc366004611464565b610617565b6101f46101ef3660046111e8565b610677565b604051908152602001610124565b6101486106fd565b6101936102183660046112ee565b61070c565b6101f461071b565b610193610233366004611272565b61072b565b610148610246366004611464565b610763565b610118610259366004611203565b6001600160a01b03918216600090815260056020908152604080832093909416825291909152205460ff1690565b600061029260075490565b60085410156102de5760405162461bcd60e51b8152602060048201526013602482015272151bdd185b08131a5b5a5d0814995858da1959606a1b60448201526064015b60405180910390fd5b60005b83518110156103455760006102f560075490565b905061031a85838151811061030c5761030c6116fe565b602002602001015182610874565b61032481856109b6565b610332600780546001019055565b508061033d816116a3565b9150506102e1565b5060019392505050565b60006001600160e01b031982166380ac58cd60e01b148061038057506001600160e01b03198216635b5e139f60e01b145b8061039b57506301ffc9a760e01b6001600160e01b03198316145b92915050565b6060600080546103b090611668565b80601f01602080910402602001604051908101604052809291908181526020018280546103dc90611668565b80156104295780601f106103fe57610100808354040283529160200191610429565b820191906000526020600020905b81548152906001019060200180831161040c57829003601f168201915b5050505050905090565b600061043e82610a50565b506000908152600460205260409020546001600160a01b031690565b600061046582610617565b9050806001600160a01b0316836001600160a01b031614156104d35760405162461bcd60e51b815260206004820152602160248201527f4552433732313a20617070726f76616c20746f2063757272656e74206f776e656044820152603960f91b60648201526084016102d5565b336001600160a01b03821614806104ef57506104ef8133610259565b6105615760405162461bcd60e51b815260206004820152603e60248201527f4552433732313a20617070726f76652063616c6c6572206973206e6f7420746f60448201527f6b656e206f776e6572206e6f7220617070726f76656420666f7220616c6c000060648201526084016102d5565b61056b8383610ab2565b505050565b61057a3382610b20565b6105965760405162461bcd60e51b81526004016102d59061157a565b61056b838383610b9e565b6009546001600160a01b031633146105e85760405162461bcd60e51b815260206004820152600a60248201526927b7363c9037bbb732b960b11b60448201526064016102d5565b806008546105f691906115f9565b60085550565b61056b8383836040518060200160405280600081525061072b565b6000818152600260205260408120546001600160a01b03168061039b5760405162461bcd60e51b8152602060048201526018602482015277115490cdcc8c4e881a5b9d985b1a59081d1bdad95b88125160421b60448201526064016102d5565b60006001600160a01b0382166106e15760405162461bcd60e51b815260206004820152602960248201527f4552433732313a2061646472657373207a65726f206973206e6f7420612076616044820152683634b21037bbb732b960b91b60648201526084016102d5565b506001600160a01b031660009081526003602052604090205490565b6060600180546103b090611668565b610717338383610d3a565b5050565b600061072660075490565b905090565b6107353383610b20565b6107515760405162461bcd60e51b81526004016102d59061157a565b61075d84848484610e09565b50505050565b606061076e82610a50565b6000828152600660205260408120805461078790611668565b80601f01602080910402602001604051908101604052809291908181526020018280546107b390611668565b80156108005780601f106107d557610100808354040283529160200191610800565b820191906000526020600020905b8154815290600101906020018083116107e357829003601f168201915b50505050509050600061081e60408051602081019091526000815290565b9050805160001415610831575092915050565b81511561086357808260405160200161084b9291906114a9565b60405160208183030381529060405292505050919050565b61086c84610e3c565b949350505050565b6001600160a01b0382166108ca5760405162461bcd60e51b815260206004820181905260248201527f4552433732313a206d696e7420746f20746865207a65726f206164647265737360448201526064016102d5565b6000818152600260205260409020546001600160a01b03161561092f5760405162461bcd60e51b815260206004820152601c60248201527f4552433732313a20746f6b656e20616c7265616479206d696e7465640000000060448201526064016102d5565b6001600160a01b03821660009081526003602052604081208054600192906109589084906115f9565b909155505060008181526002602052604080822080546001600160a01b0319166001600160a01b03861690811790915590518392907fddf252ad1be2c89b69c2b068fc378daa952ba7f163c4a11628f55a4df523b3ef908290a45050565b6000828152600260205260409020546001600160a01b0316610a315760405162461bcd60e51b815260206004820152602e60248201527f45524337323155524953746f726167653a2055524920736574206f66206e6f6e60448201526d32bc34b9ba32b73a103a37b5b2b760911b60648201526084016102d5565b6000828152600660209081526040909120825161056b928401906110bb565b6000818152600260205260409020546001600160a01b0316610aaf5760405162461bcd60e51b8152602060048201526018602482015277115490cdcc8c4e881a5b9d985b1a59081d1bdad95b88125160421b60448201526064016102d5565b50565b600081815260046020526040902080546001600160a01b0319166001600160a01b0384169081179091558190610ae782610617565b6001600160a01b03167f8c5be1e5ebec7d5bd14f71427d1e84f3dd0314c0f7b2291e5b200ac8c7c3b92560405160405180910390a45050565b600080610b2c83610617565b9050806001600160a01b0316846001600160a01b03161480610b7357506001600160a01b0380821660009081526005602090815260408083209388168352929052205460ff165b8061086c5750836001600160a01b0316610b8c84610433565b6001600160a01b031614949350505050565b826001600160a01b0316610bb182610617565b6001600160a01b031614610c155760405162461bcd60e51b815260206004820152602560248201527f4552433732313a207472616e736665722066726f6d20696e636f72726563742060448201526437bbb732b960d91b60648201526084016102d5565b6001600160a01b038216610c775760405162461bcd60e51b8152602060048201526024808201527f4552433732313a207472616e7366657220746f20746865207a65726f206164646044820152637265737360e01b60648201526084016102d5565b610c82600082610ab2565b6001600160a01b0383166000908152600360205260408120805460019290610cab908490611625565b90915550506001600160a01b0382166000908152600360205260408120805460019290610cd99084906115f9565b909155505060008181526002602052604080822080546001600160a01b0319166001600160a01b0386811691821790925591518493918716917fddf252ad1be2c89b69c2b068fc378daa952ba7f163c4a11628f55a4df523b3ef91a4505050565b816001600160a01b0316836001600160a01b03161415610d9c5760405162461bcd60e51b815260206004820152601960248201527f4552433732313a20617070726f766520746f2063616c6c65720000000000000060448201526064016102d5565b6001600160a01b03838116600081815260056020908152604080832094871680845294825291829020805460ff191686151590811790915591519182527f17307eab39ab6107e8899845ad3d59bd9653f200f220920489ca2b5937696c31910160405180910390a3505050565b610e14848484610b9e565b610e2084848484610eb0565b61075d5760405162461bcd60e51b81526004016102d590611528565b6060610e4782610a50565b6000610e5e60408051602081019091526000815290565b90506000815111610e7e5760405180602001604052806000815250610ea9565b80610e8884610fbd565b604051602001610e999291906114a9565b6040516020818303038152906040525b9392505050565b60006001600160a01b0384163b15610fb257604051630a85bd0160e11b81526001600160a01b0385169063150b7a0290610ef49033908990889088906004016114d8565b602060405180830381600087803b158015610f0e57600080fd5b505af1925050508015610f3e575060408051601f3d908101601f19168201909252610f3b91810190611447565b60015b610f98573d808015610f6c576040519150601f19603f3d011682016040523d82523d6000602084013e610f71565b606091505b508051610f905760405162461bcd60e51b81526004016102d590611528565b805181602001fd5b6001600160e01b031916630a85bd0160e11b14905061086c565b506001949350505050565b606081610fe15750506040805180820190915260018152600360fc1b602082015290565b8160005b811561100b5780610ff5816116a3565b91506110049050600a83611611565b9150610fe5565b60008167ffffffffffffffff81111561102657611026611714565b6040519080825280601f01601f191660200182016040528015611050576020820181803683370190505b5090505b841561086c57611065600183611625565b9150611072600a866116be565b61107d9060306115f9565b60f81b818381518110611092576110926116fe565b60200101906001600160f81b031916908160001a9053506110b4600a86611611565b9450611054565b8280546110c790611668565b90600052602060002090601f0160209004810192826110e9576000855561112f565b82601f1061110257805160ff191683800117855561112f565b8280016001018555821561112f579182015b8281111561112f578251825591602001919060010190611114565b5061113b92915061113f565b5090565b5b8082111561113b5760008155600101611140565b600067ffffffffffffffff83111561116e5761116e611714565b611181601f8401601f19166020016115c8565b905082815283838301111561119557600080fd5b828260208301376000602084830101529392505050565b80356001600160a01b03811681146111c357600080fd5b919050565b600082601f8301126111d957600080fd5b610ea983833560208501611154565b6000602082840312156111fa57600080fd5b610ea9826111ac565b6000806040838503121561121657600080fd5b61121f836111ac565b915061122d602084016111ac565b90509250929050565b60008060006060848603121561124b57600080fd5b611254846111ac565b9250611262602085016111ac565b9150604084013590509250925092565b6000806000806080858703121561128857600080fd5b611291856111ac565b935061129f602086016111ac565b925060408501359150606085013567ffffffffffffffff8111156112c257600080fd5b8501601f810187136112d357600080fd5b6112e287823560208401611154565b91505092959194509250565b6000806040838503121561130157600080fd5b61130a836111ac565b91506020830135801515811461131f57600080fd5b809150509250929050565b6000806040838503121561133d57600080fd5b611346836111ac565b946020939093013593505050565b6000806040838503121561136757600080fd5b823567ffffffffffffffff8082111561137f57600080fd5b818501915085601f83011261139357600080fd5b81356020828211156113a7576113a7611714565b8160051b6113b68282016115c8565b8381528281019086840183880185018c10156113d157600080fd5b600097505b858810156113fb576113e7816111ac565b8352600197909701969184019184016113d6565b50975050508601359250508082111561141357600080fd5b50611420858286016111c8565b9150509250929050565b60006020828403121561143c57600080fd5b8135610ea98161172a565b60006020828403121561145957600080fd5b8151610ea98161172a565b60006020828403121561147657600080fd5b5035919050565b6000815180845261149581602086016020860161163c565b601f01601f19169290920160200192915050565b600083516114bb81846020880161163c565b8351908301906114cf81836020880161163c565b01949350505050565b6001600160a01b038581168252841660208201526040810183905260806060820181905260009061150b9083018461147d565b9695505050505050565b602081526000610ea9602083018461147d565b60208082526032908201527f4552433732313a207472616e7366657220746f206e6f6e20455243373231526560408201527131b2b4bb32b91034b6b83632b6b2b73a32b960711b606082015260800190565b6020808252602e908201527f4552433732313a2063616c6c6572206973206e6f7420746f6b656e206f776e6560408201526d1c881b9bdc88185c1c1c9bdd995960921b606082015260800190565b604051601f8201601f1916810167ffffffffffffffff811182821017156115f1576115f1611714565b604052919050565b6000821982111561160c5761160c6116d2565b500190565b600082611620576116206116e8565b500490565b600082821015611637576116376116d2565b500390565b60005b8381101561165757818101518382015260200161163f565b8381111561075d5750506000910152565b600181811c9082168061167c57607f821691505b6020821081141561169d57634e487b7160e01b600052602260045260246000fd5b50919050565b60006000198214156116b7576116b76116d2565b5060010190565b6000826116cd576116cd6116e8565b500690565b634e487b7160e01b600052601160045260246000fd5b634e487b7160e01b600052601260045260246000fd5b634e487b7160e01b600052603260045260246000fd5b634e487b7160e01b600052604160045260246000fd5b6001600160e01b031981168114610aaf57600080fdfea2646970667358221220b5ea10cf48c49989e2fd232babde585f9a4cb6062dc86d3732f3492e57303f5a64736f6c63430008070033",
  "linkReferences": {},
  "deployedLinkReferences": {}
}