{
  "_format": "hh-sol-artifact-1",
  "contractName": "CloverSuiteNFT",
  "sourceName": "contracts/localdao.sol",
  "abi": [
    {
      "inputs": [
        {
          "internalType": "string",
          "name": "name",
          "type": "string"
        },
        {
          "internalType": "string",
          "name": "symbol",
          "type": "string"
        },
        {
          "internalType": "address[]",
          "name": "members",
          "type": "address[]"
        },
        {
          "internalType": "string",
          "name": "tokenURI",
          "type": "string"
        }
      ],
      "stateMutability": "nonpayable",
      "type": "constructor"
    },
    {
      "anonymous": false,
      "inputs": [
        {
          "indexed": true,
          "internalType": "address",
          "name": "owner",
          "type": "address"
        },
        {
          "indexed": true,
          "internalType": "address",
          "name": "approved",
          "type": "address"
        },
        {
          "indexed": true,
          "internalType": "uint256",
          "name": "tokenId",
          "type": "uint256"
        }
      ],
      "name": "Approval",
      "type": "event"
    },
    {
      "anonymous": false,
      "inputs": [
        {
          "indexed": true,
          "internalType": "address",
          "name": "owner",
          "type": "address"
        },
        {
          "indexed": true,
          "internalType": "address",
          "name": "operator",
          "type": "address"
        },
        {
          "indexed": false,
          "internalType": "bool",
          "name": "approved",
          "type": "bool"
        }
      ],
      "name": "ApprovalForAll",
      "type": "event"
    },
    {
      "anonymous": false,
      "inputs": [
        {
          "indexed": false,
          "internalType": "uint256",
          "name": "_fromTokenId",
          "type": "uint256"
        },
        {
          "indexed": false,
          "internalType": "uint256",
          "name": "_toTokenId",
          "type": "uint256"
        }
      ],
      "name": "BatchMetadataUpdate",
      "type": "event"
    },
    {
      "anonymous": false,
      "inputs": [
        {
          "indexed": false,
          "internalType": "uint256",
          "name": "_tokenId",
          "type": "uint256"
        }
      ],
      "name": "MetadataUpdate",
      "type": "event"
    },
    {
      "anonymous": false,
      "inputs": [
        {
          "indexed": true,
          "internalType": "address",
          "name": "from",
          "type": "address"
        },
        {
          "indexed": true,
          "internalType": "address",
          "name": "to",
          "type": "address"
        },
        {
          "indexed": true,
          "internalType": "uint256",
          "name": "tokenId",
          "type": "uint256"
        }
      ],
      "name": "Transfer",
      "type": "event"
    },
    {
      "inputs": [
        {
          "internalType": "uint256",
          "name": "newSupply",
          "type": "uint256"
        }
      ],
      "name": "addSupply",
      "outputs": [],
      "stateMutability": "nonpayable",
      "type": "function"
    },
    {
      "inputs": [
        {
          "internalType": "address",
          "name": "to",
          "type": "address"
        },
        {
          "internalType": "uint256",
          "name": "tokenId",
          "type": "uint256"
        }
      ],
      "name": "approve",
      "outputs": [],
      "stateMutability": "nonpayable",
      "type": "function"
    },
    {
      "inputs": [
        {
          "internalType": "address",
          "name": "owner",
          "type": "address"
        }
      ],
      "name": "balanceOf",
      "outputs": [
        {
          "internalType": "uint256",
          "name": "",
          "type": "uint256"
        }
      ],
      "stateMutability": "view",
      "type": "function"
    },
    {
      "inputs": [
        {
          "internalType": "address",
          "name": "newMinter",
          "type": "address"
        }
      ],
      "name": "changeMinter",
      "outputs": [],
      "stateMutability": "nonpayable",
      "type": "function"
    },
    {
      "inputs": [
        {
          "internalType": "address",
          "name": "newOwner",
          "type": "address"
        }
      ],
      "name": "changeOwner",
      "outputs": [],
      "stateMutability": "nonpayable",
      "type": "function"
    },
    {
      "inputs": [
        {
          "internalType": "uint256[]",
          "name": "options",
          "type": "uint256[]"
        }
      ],
      "name": "createVote",
      "outputs": [
        {
          "internalType": "uint256",
          "name": "",
          "type": "uint256"
        }
      ],
      "stateMutability": "nonpayable",
      "type": "function"
    },
    {
      "inputs": [
        {
          "internalType": "address",
          "name": "newMinter",
          "type": "address"
        }
      ],
      "name": "emergencyChangeMinter",
      "outputs": [],
      "stateMutability": "nonpayable",
      "type": "function"
    },
    {
      "inputs": [
        {
          "internalType": "uint256",
          "name": "tokenId",
          "type": "uint256"
        }
      ],
      "name": "getApproved",
      "outputs": [
        {
          "internalType": "address",
          "name": "",
          "type": "address"
        }
      ],
      "stateMutability": "view",
      "type": "function"
    },
    {
      "inputs": [
        {
          "internalType": "address",
          "name": "owner",
          "type": "address"
        },
        {
          "internalType": "address",
          "name": "operator",
          "type": "address"
        }
      ],
      "name": "isApprovedForAll",
      "outputs": [
        {
          "internalType": "bool",
          "name": "",
          "type": "bool"
        }
      ],
      "stateMutability": "view",
      "type": "function"
    },
    {
      "inputs": [
        {
          "internalType": "uint256",
          "name": "poll",
          "type": "uint256"
        },
        {
          "internalType": "uint256",
          "name": "option",
          "type": "uint256"
        }
      ],
      "name": "makeVote",
      "outputs": [
        {
          "internalType": "bool",
          "name": "",
          "type": "bool"
        }
      ],
      "stateMutability": "nonpayable",
      "type": "function"
    },
    {
      "inputs": [
        {
          "internalType": "address[]",
          "name": "forUser",
          "type": "address[]"
        },
        {
          "internalType": "string",
          "name": "tokenURI",
          "type": "string"
        }
      ],
      "name": "mintTokens",
      "outputs": [
        {
          "internalType": "bool",
          "name": "",
          "type": "bool"
        }
      ],
      "stateMutability": "nonpayable",
      "type": "function"
    },
    {
      "inputs": [],
      "name": "name",
      "outputs": [
        {
          "internalType": "string",
          "name": "",
          "type": "string"
        }
      ],
      "stateMutability": "view",
      "type": "function"
    },
    {
      "inputs": [
        {
          "internalType": "uint256",
          "name": "tokenId",
          "type": "uint256"
        }
      ],
      "name": "ownerOf",
      "outputs": [
        {
          "internalType": "address",
          "name": "",
          "type": "address"
        }
      ],
      "stateMutability": "view",
      "type": "function"
    },
    {
      "inputs": [],
      "name": "pollCount",
      "outputs": [
        {
          "internalType": "uint256",
          "name": "",
          "type": "uint256"
        }
      ],
      "stateMutability": "view",
      "type": "function"
    },
    {
      "inputs": [
        {
          "internalType": "address",
          "name": "from",
          "type": "address"
        },
        {
          "internalType": "address",
          "name": "to",
          "type": "address"
        },
        {
          "internalType": "uint256",
          "name": "tokenId",
          "type": "uint256"
        }
      ],
      "name": "safeTransferFrom",
      "outputs": [],
      "stateMutability": "nonpayable",
      "type": "function"
    },
    {
      "inputs": [
        {
          "internalType": "address",
          "name": "from",
          "type": "address"
        },
        {
          "internalType": "address",
          "name": "to",
          "type": "address"
        },
        {
          "internalType": "uint256",
          "name": "tokenId",
          "type": "uint256"
        },
        {
          "internalType": "bytes",
          "name": "data",
          "type": "bytes"
        }
      ],
      "name": "safeTransferFrom",
      "outputs": [],
      "stateMutability": "nonpayable",
      "type": "function"
    },
    {
      "inputs": [
        {
          "internalType": "address",
          "name": "operator",
          "type": "address"
        },
        {
          "internalType": "bool",
          "name": "approved",
          "type": "bool"
        }
      ],
      "name": "setApprovalForAll",
      "outputs": [],
      "stateMutability": "nonpayable",
      "type": "function"
    },
    {
      "inputs": [
        {
          "internalType": "bytes4",
          "name": "interfaceId",
          "type": "bytes4"
        }
      ],
      "name": "supportsInterface",
      "outputs": [
        {
          "internalType": "bool",
          "name": "",
          "type": "bool"
        }
      ],
      "stateMutability": "view",
      "type": "function"
    },
    {
      "inputs": [],
      "name": "symbol",
      "outputs": [
        {
          "internalType": "string",
          "name": "",
          "type": "string"
        }
      ],
      "stateMutability": "view",
      "type": "function"
    },
    {
      "inputs": [
        {
          "internalType": "uint256",
          "name": "tokenId",
          "type": "uint256"
        }
      ],
      "name": "tokenURI",
      "outputs": [
        {
          "internalType": "string",
          "name": "",
          "type": "string"
        }
      ],
      "stateMutability": "view",
      "type": "function"
    },
    {
      "inputs": [],
      "name": "totalMinted",
      "outputs": [
        {
          "internalType": "uint256",
          "name": "",
          "type": "uint256"
        }
      ],
      "stateMutability": "view",
      "type": "function"
    },
    {
      "inputs": [
        {
          "internalType": "address",
          "name": "from",
          "type": "address"
        },
        {
          "internalType": "address",
          "name": "to",
          "type": "address"
        },
        {
          "internalType": "uint256",
          "name": "tokenId",
          "type": "uint256"
        }
      ],
      "name": "transferFrom",
      "outputs": [],
      "stateMutability": "nonpayable",
      "type": "function"
    },
    {
      "inputs": [
        {
          "internalType": "uint256",
          "name": "poll",
          "type": "uint256"
        }
      ],
      "name": "viewVotes",
      "outputs": [
        {
          "internalType": "uint256[]",
          "name": "",
          "type": "uint256[]"
        }
      ],
      "stateMutability": "view",
      "type": "function"
    },
    {
      "inputs": [
        {
          "internalType": "address",
          "name": "",
          "type": "address"
        },
        {
          "internalType": "uint256",
          "name": "",
          "type": "uint256"
        }
      ],
      "name": "voter",
      "outputs": [
        {
          "internalType": "uint256",
          "name": "",
          "type": "uint256"
        }
      ],
      "stateMutability": "view",
      "type": "function"
    }
  ],
  "bytecode": "0x633b9aca0060085560c060405260046080819052630322e31360e41b60a09081526200002f916009919062000413565b50600a80546001600160a01b031990811673d885bbc384eac928df787d3cf0b38d7f444d152917909155600c8054909116730249b7e6bcbfa9f27829d69f305eaed53c4aaa5e1790556000600f553480156200008a57600080fd5b50604051620026d7380380620026d7833981016040819052620000ad916200054e565b835184908490620000c690600090602085019062000413565b508051620000dc90600190602084019062000413565b5050600b80546001600160a01b0319163317905550620000fd828262000107565b5050505062000758565b60005b8251811015620001965760006200012d60076200019b60201b62000d661760201c565b90506200015d8483815181106200014857620001486200072c565b6020026020010151826200019f60201b60201c565b62000169818462000334565b6200018060076200040a60201b62000d6a1760201c565b50806200018d8162000702565b9150506200010a565b505050565b5490565b6001600160a01b038216620001fb5760405162461bcd60e51b815260206004820181905260248201527f4552433732313a206d696e7420746f20746865207a65726f206164647265737360448201526064015b60405180910390fd5b6000818152600260205260409020546001600160a01b031615620002625760405162461bcd60e51b815260206004820152601c60248201527f4552433732313a20746f6b656e20616c7265616479206d696e746564000000006044820152606401620001f2565b6000818152600260205260409020546001600160a01b031615620002c95760405162461bcd60e51b815260206004820152601c60248201527f4552433732313a20746f6b656e20616c7265616479206d696e746564000000006044820152606401620001f2565b6001600160a01b038216600081815260036020908152604080832080546001019055848352600290915280822080546001600160a01b0319168417905551839291907fddf252ad1be2c89b69c2b068fc378daa952ba7f163c4a11628f55a4df523b3ef908290a45050565b6000828152600260205260409020546001600160a01b0316620003b15760405162461bcd60e51b815260206004820152602e60248201527f45524337323155524953746f726167653a2055524920736574206f66206e6f6e60448201526d32bc34b9ba32b73a103a37b5b2b760911b6064820152608401620001f2565b60008281526006602090815260409091208251620003d29284019062000413565b506040518281527ff8e1a15aba9398e019f0b49df1a4fde98ee17ae345cb5f6b5e2c27f5033e8ce79060200160405180910390a15050565b80546001019055565b8280546200042190620006c5565b90600052602060002090601f01602090048101928262000445576000855562000490565b82601f106200046057805160ff191683800117855562000490565b8280016001018555821562000490579182015b828111156200049057825182559160200191906001019062000473565b506200049e929150620004a2565b5090565b5b808211156200049e5760008155600101620004a3565b600082601f830112620004cb57600080fd5b81516001600160401b03811115620004e757620004e762000742565b6020620004fd601f8301601f1916820162000692565b82815285828487010111156200051257600080fd5b60005b838110156200053257858101830151828201840152820162000515565b83811115620005445760008385840101525b5095945050505050565b600080600080608085870312156200056557600080fd5b84516001600160401b03808211156200057d57600080fd5b6200058b88838901620004b9565b9550602091508187015181811115620005a357600080fd5b620005b189828a01620004b9565b955050604087015181811115620005c757600080fd5b8701601f81018913620005d957600080fd5b805182811115620005ee57620005ee62000742565b8060051b620005ff85820162000692565b8281528581019084870183860188018e10156200061b57600080fd5b600095505b848610156200065957805193506001600160a01b03841684146200064357600080fd5b8383526001959095019491870191870162000620565b50809850505050505060608701519150808211156200067757600080fd5b506200068687828801620004b9565b91505092959194509250565b604051601f8201601f191681016001600160401b0381118282101715620006bd57620006bd62000742565b604052919050565b600181811c90821680620006da57607f821691505b60208210811415620006fc57634e487b7160e01b600052602260045260246000fd5b50919050565b60006000198214156200072557634e487b7160e01b600052601160045260246000fd5b5060010190565b634e487b7160e01b600052603260045260246000fd5b634e487b7160e01b600052604160045260246000fd5b611f6f80620007686000396000f3fe608060405234801561001057600080fd5b50600436106101585760003560e01c80639207891d116100c3578063b1f56e771161007c578063b1f56e77146102df578063b88d4fde146102f2578063c87b56dd14610305578063dbe5ef1d14610318578063e730a8c71461032b578063e985e9c51461033e57600080fd5b80639207891d1461028057806395d89b4114610289578063a002f6ed14610291578063a22cb465146102b1578063a2309ff8146102c4578063a6f9dae1146102cc57600080fd5b806323b872dd1161011557806323b872dd1461020e5780632c4d4d181461022157806340753a761461023457806342842e0e146102475780636352211e1461025a57806370a082311461026d57600080fd5b8063011af71d1461015d57806301ffc9a71461018557806306fdde0314610198578063081812fc146101ad578063095ea7b3146101d8578063153ee9e0146101ed575b600080fd5b61017061016b366004611a04565b61037a565b60405190151581526020015b60405180910390f35b610170610193366004611b68565b61040d565b6101a0610438565b60405161017c9190611cd2565b6101c06101bb366004611ba2565b6104ca565b6040516001600160a01b03909116815260200161017c565b6101eb6101e63660046119da565b6104f1565b005b6102006101fb3660046119da565b610607565b60405190815260200161017c565b6101eb61021c3660046118e6565b610638565b6101eb61022f366004611898565b610669565b6101eb610242366004611ba2565b6106b5565b6101eb6102553660046118e6565b610752565b6101c0610268366004611ba2565b61076d565b61020061027b366004611898565b6107cd565b610200600f5481565b6101a0610853565b6102a461029f366004611ba2565b610862565b60405161017c9190611c8e565b6101eb6102bf36600461199e565b6108d2565b6102006108e1565b6101eb6102da366004611898565b6108f1565b6102006102ed366004611ad0565b61093d565b6101eb610300366004611922565b610a62565b6101a0610313366004611ba2565b610a9a565b6101eb610326366004611898565b610bab565b610170610339366004611bd4565b610bf5565b61017061034c3660046118b3565b6001600160a01b03918216600090815260056020908152604080832093909416825291909152205460ff1690565b600c546000906001600160a01b031633146103b05760405162461bcd60e51b81526004016103a790611dc9565b60405180910390fd5b60075460085410156103fa5760405162461bcd60e51b8152602060048201526013602482015272151bdd185b08131a5b5a5d0814995858da1959606a1b60448201526064016103a7565b6104048383610d73565b50600192915050565b60006001600160e01b03198216632483248360e11b1480610432575061043282610dda565b92915050565b60606000805461044790611e8b565b80601f016020809104026020016040519081016040528092919081815260200182805461047390611e8b565b80156104c05780601f10610495576101008083540402835291602001916104c0565b820191906000526020600020905b8154815290600101906020018083116104a357829003601f168201915b5050505050905090565b60006104d582610e2a565b506000908152600460205260409020546001600160a01b031690565b60006104fc8261076d565b9050806001600160a01b0316836001600160a01b0316141561056a5760405162461bcd60e51b815260206004820152602160248201527f4552433732313a20617070726f76616c20746f2063757272656e74206f776e656044820152603960f91b60648201526084016103a7565b336001600160a01b03821614806105865750610586813361034c565b6105f85760405162461bcd60e51b815260206004820152603d60248201527f4552433732313a20617070726f76652063616c6c6572206973206e6f7420746f60448201527f6b656e206f776e6572206f7220617070726f76656420666f7220616c6c00000060648201526084016103a7565b6106028383610e8c565b505050565b600d602052816000526040600020818154811061062357600080fd5b90600052602060002001600091509150505481565b6106423382610efa565b61065e5760405162461bcd60e51b81526004016103a790611ce5565b610602838383610f78565b600c546001600160a01b031633146106935760405162461bcd60e51b81526004016103a790611dc9565b600c80546001600160a01b0319166001600160a01b0392909216919091179055565b600b546001600160a01b031633146106fc5760405162461bcd60e51b815260206004820152600a60248201526927b7363c9037bbb732b960b11b60448201526064016103a7565b600854811161074d5760405162461bcd60e51b815260206004820152601e60248201527f43616e6e6f7420676f2062656c6f772063757272656e7420737570706c79000060448201526064016103a7565b600855565b61060283838360405180602001604052806000815250610a62565b6000818152600260205260408120546001600160a01b0316806104325760405162461bcd60e51b8152602060048201526018602482015277115490cdcc8c4e881a5b9d985b1a59081d1bdad95b88125160421b60448201526064016103a7565b60006001600160a01b0382166108375760405162461bcd60e51b815260206004820152602960248201527f4552433732313a2061646472657373207a65726f206973206e6f7420612076616044820152683634b21037bbb732b960b91b60648201526084016103a7565b506001600160a01b031660009081526003602052604090205490565b60606001805461044790611e8b565b6060600e828154811061087757610877611ef7565b60009182526020918290200180546040805182850281018501909152818152928301828280156108c657602002820191906000526020600020905b8154815260200190600101908083116108b2575b50505050509050919050565b6108dd3383836110dc565b5050565b60006108ec60075490565b905090565b600c546001600160a01b0316331461091b5760405162461bcd60e51b81526004016103a790611dc9565b600b80546001600160a01b0319166001600160a01b0392909216919091179055565b6040516370a0823160e01b8152336004820152600090819030906370a082319060240160206040518083038186803b15801561097857600080fd5b505afa15801561098c573d6000803e3d6000fd5b505050506040513d601f19601f820116820180604052508101906109b09190611bbb565b116109ef5760405162461bcd60e51b815260206004820152600f60248201526e596f752063616e6e6f7420766f746560881b60448201526064016103a7565b604080516020808201909252838152600e80546001810182556000919091528151805192937fbb7b4a454dc3493923482f07822329ed19e8244eff582cc204f8554c3620c3fd90920192610a469284920190611731565b5050600f54610a5791506001611e47565b600f81905592915050565b610a6c3383610efa565b610a885760405162461bcd60e51b81526004016103a790611ce5565b610a94848484846111ab565b50505050565b6060610aa582610e2a565b60008281526006602052604081208054610abe90611e8b565b80601f0160208091040260200160405190810160405280929190818152602001828054610aea90611e8b565b8015610b375780601f10610b0c57610100808354040283529160200191610b37565b820191906000526020600020905b815481529060010190602001808311610b1a57829003601f168201915b505050505090506000610b5560408051602081019091526000815290565b9050805160001415610b68575092915050565b815115610b9a578082604051602001610b82929190611c22565b60405160208183030381529060405292505050919050565b610ba3846111de565b949350505050565b600a546001600160a01b031633146106935760405162461bcd60e51b815260206004820152600d60248201526c57726f6e67206164647265737360981b60448201526064016103a7565b6000805b336000908152600d6020526040902054811015610ced57336000908152600d60205260409020805485919083908110610c3457610c34611ef7565b90600052602060002001541415610c7d5760405162461bcd60e51b815260206004820152600d60248201526c105b1c9958591e481d9bdd1959609a1b60448201526064016103a7565b600e8481548110610c9057610c90611ef7565b6000918252602090912001548310610cdb5760405162461bcd60e51b815260206004820152600e60248201526d24b73b30b634b21037b83a34b7b760911b60448201526064016103a7565b80610ce581611ec6565b915050610bf9565b50336000908152600d6020908152604082208054600181018255908352912001839055600e805484908110610d2457610d24611ef7565b906000526020600020016000018281548110610d4257610d42611ef7565b60009182526020822001805491610d5883611ec6565b909155506001949350505050565b5490565b80546001019055565b60005b8251811015610602576000610d8a60075490565b9050610daf848381518110610da157610da1611ef7565b602002602001015182611252565b610db981846113dd565b610dc7600780546001019055565b5080610dd281611ec6565b915050610d76565b60006001600160e01b031982166380ac58cd60e01b1480610e0b57506001600160e01b03198216635b5e139f60e01b145b8061043257506301ffc9a760e01b6001600160e01b0319831614610432565b6000818152600260205260409020546001600160a01b0316610e895760405162461bcd60e51b8152602060048201526018602482015277115490cdcc8c4e881a5b9d985b1a59081d1bdad95b88125160421b60448201526064016103a7565b50565b600081815260046020526040902080546001600160a01b0319166001600160a01b0384169081179091558190610ec18261076d565b6001600160a01b03167f8c5be1e5ebec7d5bd14f71427d1e84f3dd0314c0f7b2291e5b200ac8c7c3b92560405160405180910390a45050565b600080610f068361076d565b9050806001600160a01b0316846001600160a01b03161480610f4d57506001600160a01b0380821660009081526005602090815260408083209388168352929052205460ff165b80610ba35750836001600160a01b0316610f66846104ca565b6001600160a01b031614949350505050565b826001600160a01b0316610f8b8261076d565b6001600160a01b031614610fb15760405162461bcd60e51b81526004016103a790611d84565b6001600160a01b0382166110135760405162461bcd60e51b8152602060048201526024808201527f4552433732313a207472616e7366657220746f20746865207a65726f206164646044820152637265737360e01b60648201526084016103a7565b826001600160a01b03166110268261076d565b6001600160a01b03161461104c5760405162461bcd60e51b81526004016103a790611d84565b600081815260046020908152604080832080546001600160a01b03199081169091556001600160a01b0387811680865260038552838620805460001901905590871680865283862080546001019055868652600290945282852080549092168417909155905184937fddf252ad1be2c89b69c2b068fc378daa952ba7f163c4a11628f55a4df523b3ef91a4505050565b816001600160a01b0316836001600160a01b0316141561113e5760405162461bcd60e51b815260206004820152601960248201527f4552433732313a20617070726f766520746f2063616c6c65720000000000000060448201526064016103a7565b6001600160a01b03838116600081815260056020908152604080832094871680845294825291829020805460ff191686151590811790915591519182527f17307eab39ab6107e8899845ad3d59bd9653f200f220920489ca2b5937696c31910160405180910390a3505050565b6111b6848484610f78565b6111c2848484846114af565b610a945760405162461bcd60e51b81526004016103a790611d32565b60606111e982610e2a565b600061120060408051602081019091526000815290565b90506000815111611220576040518060200160405280600081525061124b565b8061122a846115bc565b60405160200161123b929190611c22565b6040516020818303038152906040525b9392505050565b6001600160a01b0382166112a85760405162461bcd60e51b815260206004820181905260248201527f4552433732313a206d696e7420746f20746865207a65726f206164647265737360448201526064016103a7565b6000818152600260205260409020546001600160a01b03161561130d5760405162461bcd60e51b815260206004820152601c60248201527f4552433732313a20746f6b656e20616c7265616479206d696e7465640000000060448201526064016103a7565b6000818152600260205260409020546001600160a01b0316156113725760405162461bcd60e51b815260206004820152601c60248201527f4552433732313a20746f6b656e20616c7265616479206d696e7465640000000060448201526064016103a7565b6001600160a01b038216600081815260036020908152604080832080546001019055848352600290915280822080546001600160a01b0319168417905551839291907fddf252ad1be2c89b69c2b068fc378daa952ba7f163c4a11628f55a4df523b3ef908290a45050565b6000828152600260205260409020546001600160a01b03166114585760405162461bcd60e51b815260206004820152602e60248201527f45524337323155524953746f726167653a2055524920736574206f66206e6f6e60448201526d32bc34b9ba32b73a103a37b5b2b760911b60648201526084016103a7565b600082815260066020908152604090912082516114779284019061177c565b506040518281527ff8e1a15aba9398e019f0b49df1a4fde98ee17ae345cb5f6b5e2c27f5033e8ce79060200160405180910390a15050565b60006001600160a01b0384163b156115b157604051630a85bd0160e11b81526001600160a01b0385169063150b7a02906114f3903390899088908890600401611c51565b602060405180830381600087803b15801561150d57600080fd5b505af192505050801561153d575060408051601f3d908101601f1916820190925261153a91810190611b85565b60015b611597573d80801561156b576040519150601f19603f3d011682016040523d82523d6000602084013e611570565b606091505b50805161158f5760405162461bcd60e51b81526004016103a790611d32565b805181602001fd5b6001600160e01b031916630a85bd0160e11b149050610ba3565b506001949350505050565b606060006115c983611659565b600101905060008167ffffffffffffffff8111156115e9576115e9611f0d565b6040519080825280601f01601f191660200182016040528015611613576020820181803683370190505b5090508181016020015b600019016f181899199a1a9b1b9c1cb0b131b232b360811b600a86061a8153600a850494508461164c57611651565b61161d565b509392505050565b60008072184f03e93ff9f4daa797ed6e38ed64bf6a1f0160401b83106116985772184f03e93ff9f4daa797ed6e38ed64bf6a1f0160401b830492506040015b6d04ee2d6d415b85acef810000000083106116c4576d04ee2d6d415b85acef8100000000830492506020015b662386f26fc1000083106116e257662386f26fc10000830492506010015b6305f5e10083106116fa576305f5e100830492506008015b612710831061170e57612710830492506004015b60648310611720576064830492506002015b600a83106104325760010192915050565b82805482825590600052602060002090810192821561176c579160200282015b8281111561176c578251825591602001919060010190611751565b506117789291506117ef565b5090565b82805461178890611e8b565b90600052602060002090601f0160209004810192826117aa576000855561176c565b82601f106117c357805160ff191683800117855561176c565b8280016001018555821561176c579182018281111561176c578251825591602001919060010190611751565b5b8082111561177857600081556001016117f0565b600067ffffffffffffffff83111561181e5761181e611f0d565b611831601f8401601f1916602001611df2565b905082815283838301111561184557600080fd5b828260208301376000602084830101529392505050565b80356001600160a01b038116811461187357600080fd5b919050565b600082601f83011261188957600080fd5b61124b83833560208501611804565b6000602082840312156118aa57600080fd5b61124b8261185c565b600080604083850312156118c657600080fd5b6118cf8361185c565b91506118dd6020840161185c565b90509250929050565b6000806000606084860312156118fb57600080fd5b6119048461185c565b92506119126020850161185c565b9150604084013590509250925092565b6000806000806080858703121561193857600080fd5b6119418561185c565b935061194f6020860161185c565b925060408501359150606085013567ffffffffffffffff81111561197257600080fd5b8501601f8101871361198357600080fd5b61199287823560208401611804565b91505092959194509250565b600080604083850312156119b157600080fd5b6119ba8361185c565b9150602083013580151581146119cf57600080fd5b809150509250929050565b600080604083850312156119ed57600080fd5b6119f68361185c565b946020939093013593505050565b60008060408385031215611a1757600080fd5b823567ffffffffffffffff80821115611a2f57600080fd5b818501915085601f830112611a4357600080fd5b81356020611a58611a5383611e23565b611df2565b8083825282820191508286018a848660051b8901011115611a7857600080fd5b600096505b84871015611aa257611a8e8161185c565b835260019690960195918301918301611a7d565b5096505086013592505080821115611ab957600080fd5b50611ac685828601611878565b9150509250929050565b60006020808385031215611ae357600080fd5b823567ffffffffffffffff811115611afa57600080fd5b8301601f81018513611b0b57600080fd5b8035611b19611a5382611e23565b80828252848201915084840188868560051b8701011115611b3957600080fd5b600094505b83851015611b5c578035835260019490940193918501918501611b3e565b50979650505050505050565b600060208284031215611b7a57600080fd5b813561124b81611f23565b600060208284031215611b9757600080fd5b815161124b81611f23565b600060208284031215611bb457600080fd5b5035919050565b600060208284031215611bcd57600080fd5b5051919050565b60008060408385031215611be757600080fd5b50508035926020909101359150565b60008151808452611c0e816020860160208601611e5f565b601f01601f19169290920160200192915050565b60008351611c34818460208801611e5f565b835190830190611c48818360208801611e5f565b01949350505050565b6001600160a01b0385811682528416602082015260408101839052608060608201819052600090611c8490830184611bf6565b9695505050505050565b6020808252825182820181905260009190848201906040850190845b81811015611cc657835183529284019291840191600101611caa565b50909695505050505050565b60208152600061124b6020830184611bf6565b6020808252602d908201527f4552433732313a2063616c6c6572206973206e6f7420746f6b656e206f776e6560408201526c1c881bdc88185c1c1c9bdd9959609a1b606082015260800190565b60208082526032908201527f4552433732313a207472616e7366657220746f206e6f6e20455243373231526560408201527131b2b4bb32b91034b6b83632b6b2b73a32b960711b606082015260800190565b60208082526025908201527f4552433732313a207472616e736665722066726f6d20696e636f72726563742060408201526437bbb732b960d91b606082015260800190565b6020808252600f908201526e165bdd4818d85b9b9bdd081b5a5b9d608a1b604082015260600190565b604051601f8201601f1916810167ffffffffffffffff81118282101715611e1b57611e1b611f0d565b604052919050565b600067ffffffffffffffff821115611e3d57611e3d611f0d565b5060051b60200190565b60008219821115611e5a57611e5a611ee1565b500190565b60005b83811015611e7a578181015183820152602001611e62565b83811115610a945750506000910152565b600181811c90821680611e9f57607f821691505b60208210811415611ec057634e487b7160e01b600052602260045260246000fd5b50919050565b6000600019821415611eda57611eda611ee1565b5060010190565b634e487b7160e01b600052601160045260246000fd5b634e487b7160e01b600052603260045260246000fd5b634e487b7160e01b600052604160045260246000fd5b6001600160e01b031981168114610e8957600080fdfea26469706673582212200d0dd8d672e61f4d608e1610abe910c973b9de047f23141d3eaedf3a7a0d430f64736f6c63430008070033",
  "linkReferences": {},
  "deployedLinkReferences": {}
}