{
  "_format": "hh-sol-artifact-1",
  "contractName": "CloverSuiteNFT",
  "sourceName": "contracts/localdao.sol",
  "abi": [
    {
      "inputs": [
        {
          "internalType": "string",
          "name": "name",
          "type": "string"
        },
        {
          "internalType": "string",
          "name": "symbol",
          "type": "string"
        },
        {
          "internalType": "address[]",
          "name": "members",
          "type": "address[]"
        },
        {
          "internalType": "string",
          "name": "tokenURI",
          "type": "string"
        }
      ],
      "stateMutability": "nonpayable",
      "type": "constructor"
    },
    {
      "anonymous": false,
      "inputs": [
        {
          "indexed": true,
          "internalType": "address",
          "name": "owner",
          "type": "address"
        },
        {
          "indexed": true,
          "internalType": "address",
          "name": "approved",
          "type": "address"
        },
        {
          "indexed": true,
          "internalType": "uint256",
          "name": "tokenId",
          "type": "uint256"
        }
      ],
      "name": "Approval",
      "type": "event"
    },
    {
      "anonymous": false,
      "inputs": [
        {
          "indexed": true,
          "internalType": "address",
          "name": "owner",
          "type": "address"
        },
        {
          "indexed": true,
          "internalType": "address",
          "name": "operator",
          "type": "address"
        },
        {
          "indexed": false,
          "internalType": "bool",
          "name": "approved",
          "type": "bool"
        }
      ],
      "name": "ApprovalForAll",
      "type": "event"
    },
    {
      "anonymous": false,
      "inputs": [
        {
          "indexed": true,
          "internalType": "address",
          "name": "from",
          "type": "address"
        },
        {
          "indexed": true,
          "internalType": "address",
          "name": "to",
          "type": "address"
        },
        {
          "indexed": true,
          "internalType": "uint256",
          "name": "tokenId",
          "type": "uint256"
        }
      ],
      "name": "Transfer",
      "type": "event"
    },
    {
      "inputs": [
        {
          "internalType": "uint256",
          "name": "newSupply",
          "type": "uint256"
        }
      ],
      "name": "addSupply",
      "outputs": [],
      "stateMutability": "nonpayable",
      "type": "function"
    },
    {
      "inputs": [
        {
          "internalType": "address",
          "name": "to",
          "type": "address"
        },
        {
          "internalType": "uint256",
          "name": "tokenId",
          "type": "uint256"
        }
      ],
      "name": "approve",
      "outputs": [],
      "stateMutability": "nonpayable",
      "type": "function"
    },
    {
      "inputs": [
        {
          "internalType": "address",
          "name": "owner",
          "type": "address"
        }
      ],
      "name": "balanceOf",
      "outputs": [
        {
          "internalType": "uint256",
          "name": "",
          "type": "uint256"
        }
      ],
      "stateMutability": "view",
      "type": "function"
    },
    {
      "inputs": [
        {
          "internalType": "address",
          "name": "newMinter",
          "type": "address"
        }
      ],
      "name": "changeMinter",
      "outputs": [],
      "stateMutability": "nonpayable",
      "type": "function"
    },
    {
      "inputs": [
        {
          "internalType": "address",
          "name": "newOwner",
          "type": "address"
        }
      ],
      "name": "changeOwner",
      "outputs": [],
      "stateMutability": "nonpayable",
      "type": "function"
    },
    {
      "inputs": [
        {
          "internalType": "address",
          "name": "newMinter",
          "type": "address"
        }
      ],
      "name": "emergencyChangeMinter",
      "outputs": [],
      "stateMutability": "nonpayable",
      "type": "function"
    },
    {
      "inputs": [
        {
          "internalType": "uint256",
          "name": "tokenId",
          "type": "uint256"
        }
      ],
      "name": "getApproved",
      "outputs": [
        {
          "internalType": "address",
          "name": "",
          "type": "address"
        }
      ],
      "stateMutability": "view",
      "type": "function"
    },
    {
      "inputs": [
        {
          "internalType": "address",
          "name": "owner",
          "type": "address"
        },
        {
          "internalType": "address",
          "name": "operator",
          "type": "address"
        }
      ],
      "name": "isApprovedForAll",
      "outputs": [
        {
          "internalType": "bool",
          "name": "",
          "type": "bool"
        }
      ],
      "stateMutability": "view",
      "type": "function"
    },
    {
      "inputs": [
        {
          "internalType": "address[]",
          "name": "forUser",
          "type": "address[]"
        },
        {
          "internalType": "string",
          "name": "tokenURI",
          "type": "string"
        }
      ],
      "name": "mintTokens",
      "outputs": [
        {
          "internalType": "bool",
          "name": "",
          "type": "bool"
        }
      ],
      "stateMutability": "nonpayable",
      "type": "function"
    },
    {
      "inputs": [],
      "name": "name",
      "outputs": [
        {
          "internalType": "string",
          "name": "",
          "type": "string"
        }
      ],
      "stateMutability": "view",
      "type": "function"
    },
    {
      "inputs": [
        {
          "internalType": "uint256",
          "name": "tokenId",
          "type": "uint256"
        }
      ],
      "name": "ownerOf",
      "outputs": [
        {
          "internalType": "address",
          "name": "",
          "type": "address"
        }
      ],
      "stateMutability": "view",
      "type": "function"
    },
    {
      "inputs": [
        {
          "internalType": "address",
          "name": "from",
          "type": "address"
        },
        {
          "internalType": "address",
          "name": "to",
          "type": "address"
        },
        {
          "internalType": "uint256",
          "name": "tokenId",
          "type": "uint256"
        }
      ],
      "name": "safeTransferFrom",
      "outputs": [],
      "stateMutability": "nonpayable",
      "type": "function"
    },
    {
      "inputs": [
        {
          "internalType": "address",
          "name": "from",
          "type": "address"
        },
        {
          "internalType": "address",
          "name": "to",
          "type": "address"
        },
        {
          "internalType": "uint256",
          "name": "tokenId",
          "type": "uint256"
        },
        {
          "internalType": "bytes",
          "name": "data",
          "type": "bytes"
        }
      ],
      "name": "safeTransferFrom",
      "outputs": [],
      "stateMutability": "nonpayable",
      "type": "function"
    },
    {
      "inputs": [
        {
          "internalType": "address",
          "name": "operator",
          "type": "address"
        },
        {
          "internalType": "bool",
          "name": "approved",
          "type": "bool"
        }
      ],
      "name": "setApprovalForAll",
      "outputs": [],
      "stateMutability": "nonpayable",
      "type": "function"
    },
    {
      "inputs": [
        {
          "internalType": "bytes4",
          "name": "interfaceId",
          "type": "bytes4"
        }
      ],
      "name": "supportsInterface",
      "outputs": [
        {
          "internalType": "bool",
          "name": "",
          "type": "bool"
        }
      ],
      "stateMutability": "view",
      "type": "function"
    },
    {
      "inputs": [],
      "name": "symbol",
      "outputs": [
        {
          "internalType": "string",
          "name": "",
          "type": "string"
        }
      ],
      "stateMutability": "view",
      "type": "function"
    },
    {
      "inputs": [
        {
          "internalType": "uint256",
          "name": "tokenId",
          "type": "uint256"
        }
      ],
      "name": "tokenURI",
      "outputs": [
        {
          "internalType": "string",
          "name": "",
          "type": "string"
        }
      ],
      "stateMutability": "view",
      "type": "function"
    },
    {
      "inputs": [],
      "name": "totalMinted",
      "outputs": [
        {
          "internalType": "uint256",
          "name": "",
          "type": "uint256"
        }
      ],
      "stateMutability": "view",
      "type": "function"
    },
    {
      "inputs": [
        {
          "internalType": "address",
          "name": "from",
          "type": "address"
        },
        {
          "internalType": "address",
          "name": "to",
          "type": "address"
        },
        {
          "internalType": "uint256",
          "name": "tokenId",
          "type": "uint256"
        }
      ],
      "name": "transferFrom",
      "outputs": [],
      "stateMutability": "nonpayable",
      "type": "function"
    }
  ],
  "bytecode": "0x6080604052633b9aca00600855600980546001600160a01b031990811673d885bbc384eac928df787d3cf0b38d7f444d152917909155600b8054909116730249b7e6bcbfa9f27829d69f305eaed53c4aaa5e1790553480156200006157600080fd5b506040516200203f3803806200203f8339810160408190526200008491620004a4565b8351849084906200009d90600090602085019062000369565b508051620000b390600190602084019062000369565b5050600a80546001600160a01b0319163317905550620000d48282620000de565b50505050620006d3565b60005b82518110156200016d5760006200010460076200017260201b620009bd1760201c565b9050620001348483815181106200011f576200011f620006a7565b6020026020010151826200017660201b60201c565b620001408184620002c2565b6200015760076200036060201b620009c11760201c565b5080620001648162000673565b915050620000e1565b505050565b5490565b6001600160a01b038216620001d25760405162461bcd60e51b815260206004820181905260248201527f4552433732313a206d696e7420746f20746865207a65726f206164647265737360448201526064015b60405180910390fd5b6000818152600260205260409020546001600160a01b031615620002395760405162461bcd60e51b815260206004820152601c60248201527f4552433732313a20746f6b656e20616c7265616479206d696e746564000000006044820152606401620001c9565b6001600160a01b0382166000908152600360205260408120805460019290620002649084906200061b565b909155505060008181526002602052604080822080546001600160a01b0319166001600160a01b03861690811790915590518392907fddf252ad1be2c89b69c2b068fc378daa952ba7f163c4a11628f55a4df523b3ef908290a45050565b6000828152600260205260409020546001600160a01b03166200033f5760405162461bcd60e51b815260206004820152602e60248201527f45524337323155524953746f726167653a2055524920736574206f66206e6f6e60448201526d32bc34b9ba32b73a103a37b5b2b760911b6064820152608401620001c9565b600082815260066020908152604090912082516200016d9284019062000369565b80546001019055565b828054620003779062000636565b90600052602060002090601f0160209004810192826200039b5760008555620003e6565b82601f10620003b657805160ff1916838001178555620003e6565b82800160010185558215620003e6579182015b82811115620003e6578251825591602001919060010190620003c9565b50620003f4929150620003f8565b5090565b5b80821115620003f45760008155600101620003f9565b600082601f8301126200042157600080fd5b81516001600160401b038111156200043d576200043d620006bd565b602062000453601f8301601f19168201620005e8565b82815285828487010111156200046857600080fd5b60005b83811015620004885785810183015182820184015282016200046b565b838111156200049a5760008385840101525b5095945050505050565b60008060008060808587031215620004bb57600080fd5b84516001600160401b0380821115620004d357600080fd5b620004e1888389016200040f565b9550602091508187015181811115620004f957600080fd5b6200050789828a016200040f565b9550506040870151818111156200051d57600080fd5b8701601f810189136200052f57600080fd5b805182811115620005445762000544620006bd565b8060051b62000555858201620005e8565b8281528581019084870183860188018e10156200057157600080fd5b600095505b84861015620005af57805193506001600160a01b03841684146200059957600080fd5b8383526001959095019491870191870162000576565b5080985050505050506060870151915080821115620005cd57600080fd5b50620005dc878288016200040f565b91505092959194509250565b604051601f8201601f191681016001600160401b0381118282101715620006135762000613620006bd565b604052919050565b6000821982111562000631576200063162000691565b500190565b600181811c908216806200064b57607f821691505b602082108114156200066d57634e487b7160e01b600052602260045260246000fd5b50919050565b60006000198214156200068a576200068a62000691565b5060010190565b634e487b7160e01b600052601160045260246000fd5b634e487b7160e01b600052603260045260246000fd5b634e487b7160e01b600052604160045260246000fd5b61195c80620006e36000396000f3fe608060405234801561001057600080fd5b50600436106101215760003560e01c80636352211e116100ad578063a6f9dae111610071578063a6f9dae114610259578063b88d4fde1461026c578063c87b56dd1461027f578063dbe5ef1d14610292578063e985e9c5146102a557600080fd5b80636352211e1461020257806370a082311461021557806395d89b4114610236578063a22cb4651461023e578063a2309ff81461025157600080fd5b8063095ea7b3116100f4578063095ea7b3146101a157806323b872dd146101b65780632c4d4d18146101c957806340753a76146101dc57806342842e0e146101ef57600080fd5b8063011af71d1461012657806301ffc9a71461014e57806306fdde0314610161578063081812fc14610176575b600080fd5b610139610134366004611511565b6102e1565b60405190151581526020015b60405180910390f35b61013961015c3660046115e7565b610374565b6101696103c6565b60405161014591906116d2565b610189610184366004611621565b610458565b6040516001600160a01b039091168152602001610145565b6101b46101af3660046114e7565b61047f565b005b6101b46101c43660046113f3565b610595565b6101b46101d73660046113a5565b6105c6565b6101b46101ea366004611621565b610612565b6101b46101fd3660046113f3565b6106af565b610189610210366004611621565b6106ca565b6102286102233660046113a5565b61072a565b604051908152602001610145565b6101696107b0565b6101b461024c3660046114ab565b6107bf565b6102286107ce565b6101b46102673660046113a5565b6107de565b6101b461027a36600461142f565b61082a565b61016961028d366004611621565b610862565b6101b46102a03660046113a5565b610973565b6101396102b33660046113c0565b6001600160a01b03918216600090815260056020908152604080832093909416825291909152205460ff1690565b600b546000906001600160a01b031633146103175760405162461bcd60e51b815260040161030e90611737565b60405180910390fd5b60075460085410156103615760405162461bcd60e51b8152602060048201526013602482015272151bdd185b08131a5b5a5d0814995858da1959606a1b604482015260640161030e565b61036b83836109ca565b50600192915050565b60006001600160e01b031982166380ac58cd60e01b14806103a557506001600160e01b03198216635b5e139f60e01b145b806103c057506301ffc9a760e01b6001600160e01b03198316145b92915050565b6060600080546103d59061184e565b80601f01602080910402602001604051908101604052809291908181526020018280546104019061184e565b801561044e5780601f106104235761010080835404028352916020019161044e565b820191906000526020600020905b81548152906001019060200180831161043157829003601f168201915b5050505050905090565b600061046382610a31565b506000908152600460205260409020546001600160a01b031690565b600061048a826106ca565b9050806001600160a01b0316836001600160a01b031614156104f85760405162461bcd60e51b815260206004820152602160248201527f4552433732313a20617070726f76616c20746f2063757272656e74206f776e656044820152603960f91b606482015260840161030e565b336001600160a01b0382161480610514575061051481336102b3565b6105865760405162461bcd60e51b815260206004820152603e60248201527f4552433732313a20617070726f76652063616c6c6572206973206e6f7420746f60448201527f6b656e206f776e6572206e6f7220617070726f76656420666f7220616c6c0000606482015260840161030e565b6105908383610a93565b505050565b61059f3382610b01565b6105bb5760405162461bcd60e51b815260040161030e90611760565b610590838383610b7f565b600b546001600160a01b031633146105f05760405162461bcd60e51b815260040161030e90611737565b600b80546001600160a01b0319166001600160a01b0392909216919091179055565b600a546001600160a01b031633146106595760405162461bcd60e51b815260206004820152600a60248201526927b7363c9037bbb732b960b11b604482015260640161030e565b60085481116106aa5760405162461bcd60e51b815260206004820152601e60248201527f43616e6e6f7420676f2062656c6f772063757272656e7420737570706c790000604482015260640161030e565b600855565b6105908383836040518060200160405280600081525061082a565b6000818152600260205260408120546001600160a01b0316806103c05760405162461bcd60e51b8152602060048201526018602482015277115490cdcc8c4e881a5b9d985b1a59081d1bdad95b88125160421b604482015260640161030e565b60006001600160a01b0382166107945760405162461bcd60e51b815260206004820152602960248201527f4552433732313a2061646472657373207a65726f206973206e6f7420612076616044820152683634b21037bbb732b960b91b606482015260840161030e565b506001600160a01b031660009081526003602052604090205490565b6060600180546103d59061184e565b6107ca338383610d1b565b5050565b60006107d960075490565b905090565b600b546001600160a01b031633146108085760405162461bcd60e51b815260040161030e90611737565b600a80546001600160a01b0319166001600160a01b0392909216919091179055565b6108343383610b01565b6108505760405162461bcd60e51b815260040161030e90611760565b61085c84848484610dea565b50505050565b606061086d82610a31565b600082815260066020526040812080546108869061184e565b80601f01602080910402602001604051908101604052809291908181526020018280546108b29061184e565b80156108ff5780601f106108d4576101008083540402835291602001916108ff565b820191906000526020600020905b8154815290600101906020018083116108e257829003601f168201915b50505050509050600061091d60408051602081019091526000815290565b9050805160001415610930575092915050565b81511561096257808260405160200161094a929190611666565b60405160208183030381529060405292505050919050565b61096b84610e1d565b949350505050565b6009546001600160a01b031633146105f05760405162461bcd60e51b815260206004820152600d60248201526c57726f6e67206164647265737360981b604482015260640161030e565b5490565b80546001019055565b60005b82518110156105905760006109e160075490565b9050610a068483815181106109f8576109f86118e4565b602002602001015182610e91565b610a108184610fd3565b610a1e600780546001019055565b5080610a2981611889565b9150506109cd565b6000818152600260205260409020546001600160a01b0316610a905760405162461bcd60e51b8152602060048201526018602482015277115490cdcc8c4e881a5b9d985b1a59081d1bdad95b88125160421b604482015260640161030e565b50565b600081815260046020526040902080546001600160a01b0319166001600160a01b0384169081179091558190610ac8826106ca565b6001600160a01b03167f8c5be1e5ebec7d5bd14f71427d1e84f3dd0314c0f7b2291e5b200ac8c7c3b92560405160405180910390a45050565b600080610b0d836106ca565b9050806001600160a01b0316846001600160a01b03161480610b5457506001600160a01b0380821660009081526005602090815260408083209388168352929052205460ff165b8061096b5750836001600160a01b0316610b6d84610458565b6001600160a01b031614949350505050565b826001600160a01b0316610b92826106ca565b6001600160a01b031614610bf65760405162461bcd60e51b815260206004820152602560248201527f4552433732313a207472616e736665722066726f6d20696e636f72726563742060448201526437bbb732b960d91b606482015260840161030e565b6001600160a01b038216610c585760405162461bcd60e51b8152602060048201526024808201527f4552433732313a207472616e7366657220746f20746865207a65726f206164646044820152637265737360e01b606482015260840161030e565b610c63600082610a93565b6001600160a01b0383166000908152600360205260408120805460019290610c8c90849061180b565b90915550506001600160a01b0382166000908152600360205260408120805460019290610cba9084906117df565b909155505060008181526002602052604080822080546001600160a01b0319166001600160a01b0386811691821790925591518493918716917fddf252ad1be2c89b69c2b068fc378daa952ba7f163c4a11628f55a4df523b3ef91a4505050565b816001600160a01b0316836001600160a01b03161415610d7d5760405162461bcd60e51b815260206004820152601960248201527f4552433732313a20617070726f766520746f2063616c6c657200000000000000604482015260640161030e565b6001600160a01b03838116600081815260056020908152604080832094871680845294825291829020805460ff191686151590811790915591519182527f17307eab39ab6107e8899845ad3d59bd9653f200f220920489ca2b5937696c31910160405180910390a3505050565b610df5848484610b7f565b610e018484848461106d565b61085c5760405162461bcd60e51b815260040161030e906116e5565b6060610e2882610a31565b6000610e3f60408051602081019091526000815290565b90506000815111610e5f5760405180602001604052806000815250610e8a565b80610e698461117a565b604051602001610e7a929190611666565b6040516020818303038152906040525b9392505050565b6001600160a01b038216610ee75760405162461bcd60e51b815260206004820181905260248201527f4552433732313a206d696e7420746f20746865207a65726f2061646472657373604482015260640161030e565b6000818152600260205260409020546001600160a01b031615610f4c5760405162461bcd60e51b815260206004820152601c60248201527f4552433732313a20746f6b656e20616c7265616479206d696e74656400000000604482015260640161030e565b6001600160a01b0382166000908152600360205260408120805460019290610f759084906117df565b909155505060008181526002602052604080822080546001600160a01b0319166001600160a01b03861690811790915590518392907fddf252ad1be2c89b69c2b068fc378daa952ba7f163c4a11628f55a4df523b3ef908290a45050565b6000828152600260205260409020546001600160a01b031661104e5760405162461bcd60e51b815260206004820152602e60248201527f45524337323155524953746f726167653a2055524920736574206f66206e6f6e60448201526d32bc34b9ba32b73a103a37b5b2b760911b606482015260840161030e565b6000828152600660209081526040909120825161059092840190611278565b60006001600160a01b0384163b1561116f57604051630a85bd0160e11b81526001600160a01b0385169063150b7a02906110b1903390899088908890600401611695565b602060405180830381600087803b1580156110cb57600080fd5b505af19250505080156110fb575060408051601f3d908101601f191682019092526110f891810190611604565b60015b611155573d808015611129576040519150601f19603f3d011682016040523d82523d6000602084013e61112e565b606091505b50805161114d5760405162461bcd60e51b815260040161030e906116e5565b805181602001fd5b6001600160e01b031916630a85bd0160e11b14905061096b565b506001949350505050565b60608161119e5750506040805180820190915260018152600360fc1b602082015290565b8160005b81156111c857806111b281611889565b91506111c19050600a836117f7565b91506111a2565b60008167ffffffffffffffff8111156111e3576111e36118fa565b6040519080825280601f01601f19166020018201604052801561120d576020820181803683370190505b5090505b841561096b5761122260018361180b565b915061122f600a866118a4565b61123a9060306117df565b60f81b81838151811061124f5761124f6118e4565b60200101906001600160f81b031916908160001a905350611271600a866117f7565b9450611211565b8280546112849061184e565b90600052602060002090601f0160209004810192826112a657600085556112ec565b82601f106112bf57805160ff19168380011785556112ec565b828001600101855582156112ec579182015b828111156112ec5782518255916020019190600101906112d1565b506112f89291506112fc565b5090565b5b808211156112f857600081556001016112fd565b600067ffffffffffffffff83111561132b5761132b6118fa565b61133e601f8401601f19166020016117ae565b905082815283838301111561135257600080fd5b828260208301376000602084830101529392505050565b80356001600160a01b038116811461138057600080fd5b919050565b600082601f83011261139657600080fd5b610e8a83833560208501611311565b6000602082840312156113b757600080fd5b610e8a82611369565b600080604083850312156113d357600080fd5b6113dc83611369565b91506113ea60208401611369565b90509250929050565b60008060006060848603121561140857600080fd5b61141184611369565b925061141f60208501611369565b9150604084013590509250925092565b6000806000806080858703121561144557600080fd5b61144e85611369565b935061145c60208601611369565b925060408501359150606085013567ffffffffffffffff81111561147f57600080fd5b8501601f8101871361149057600080fd5b61149f87823560208401611311565b91505092959194509250565b600080604083850312156114be57600080fd5b6114c783611369565b9150602083013580151581146114dc57600080fd5b809150509250929050565b600080604083850312156114fa57600080fd5b61150383611369565b946020939093013593505050565b6000806040838503121561152457600080fd5b823567ffffffffffffffff8082111561153c57600080fd5b818501915085601f83011261155057600080fd5b8135602082821115611564576115646118fa565b8160051b6115738282016117ae565b8381528281019086840183880185018c101561158e57600080fd5b600097505b858810156115b8576115a481611369565b835260019790970196918401918401611593565b5097505050860135925050808211156115d057600080fd5b506115dd85828601611385565b9150509250929050565b6000602082840312156115f957600080fd5b8135610e8a81611910565b60006020828403121561161657600080fd5b8151610e8a81611910565b60006020828403121561163357600080fd5b5035919050565b60008151808452611652816020860160208601611822565b601f01601f19169290920160200192915050565b60008351611678818460208801611822565b83519083019061168c818360208801611822565b01949350505050565b6001600160a01b03858116825284166020820152604081018390526080606082018190526000906116c89083018461163a565b9695505050505050565b602081526000610e8a602083018461163a565b60208082526032908201527f4552433732313a207472616e7366657220746f206e6f6e20455243373231526560408201527131b2b4bb32b91034b6b83632b6b2b73a32b960711b606082015260800190565b6020808252600f908201526e165bdd4818d85b9b9bdd081b5a5b9d608a1b604082015260600190565b6020808252602e908201527f4552433732313a2063616c6c6572206973206e6f7420746f6b656e206f776e6560408201526d1c881b9bdc88185c1c1c9bdd995960921b606082015260800190565b604051601f8201601f1916810167ffffffffffffffff811182821017156117d7576117d76118fa565b604052919050565b600082198211156117f2576117f26118b8565b500190565b600082611806576118066118ce565b500490565b60008282101561181d5761181d6118b8565b500390565b60005b8381101561183d578181015183820152602001611825565b8381111561085c5750506000910152565b600181811c9082168061186257607f821691505b6020821081141561188357634e487b7160e01b600052602260045260246000fd5b50919050565b600060001982141561189d5761189d6118b8565b5060010190565b6000826118b3576118b36118ce565b500690565b634e487b7160e01b600052601160045260246000fd5b634e487b7160e01b600052601260045260246000fd5b634e487b7160e01b600052603260045260246000fd5b634e487b7160e01b600052604160045260246000fd5b6001600160e01b031981168114610a9057600080fdfea264697066735822122058b93862d2918a00a4d70e7f6e6f47b8f933b979a891e2a8eac77bc675725fc864736f6c63430008070033",
  "linkReferences": {},
  "deployedLinkReferences": {}
}