{
  "_format": "hh-sol-artifact-1",
  "contractName": "CloverSuiteNFT",
  "sourceName": "contracts/localdao.sol",
  "abi": [
    {
      "inputs": [
        {
          "internalType": "string",
          "name": "name",
          "type": "string"
        },
        {
          "internalType": "string",
          "name": "symbol",
          "type": "string"
        },
        {
          "internalType": "address[]",
          "name": "members",
          "type": "address[]"
        },
        {
          "internalType": "string",
          "name": "tokenURI",
          "type": "string"
        }
      ],
      "stateMutability": "nonpayable",
      "type": "constructor"
    },
    {
      "anonymous": false,
      "inputs": [
        {
          "indexed": true,
          "internalType": "address",
          "name": "owner",
          "type": "address"
        },
        {
          "indexed": true,
          "internalType": "address",
          "name": "approved",
          "type": "address"
        },
        {
          "indexed": true,
          "internalType": "uint256",
          "name": "tokenId",
          "type": "uint256"
        }
      ],
      "name": "Approval",
      "type": "event"
    },
    {
      "anonymous": false,
      "inputs": [
        {
          "indexed": true,
          "internalType": "address",
          "name": "owner",
          "type": "address"
        },
        {
          "indexed": true,
          "internalType": "address",
          "name": "operator",
          "type": "address"
        },
        {
          "indexed": false,
          "internalType": "bool",
          "name": "approved",
          "type": "bool"
        }
      ],
      "name": "ApprovalForAll",
      "type": "event"
    },
    {
      "anonymous": false,
      "inputs": [
        {
          "indexed": false,
          "internalType": "uint256",
          "name": "_fromTokenId",
          "type": "uint256"
        },
        {
          "indexed": false,
          "internalType": "uint256",
          "name": "_toTokenId",
          "type": "uint256"
        }
      ],
      "name": "BatchMetadataUpdate",
      "type": "event"
    },
    {
      "anonymous": false,
      "inputs": [
        {
          "indexed": false,
          "internalType": "uint256",
          "name": "_tokenId",
          "type": "uint256"
        }
      ],
      "name": "MetadataUpdate",
      "type": "event"
    },
    {
      "anonymous": false,
      "inputs": [
        {
          "indexed": true,
          "internalType": "address",
          "name": "from",
          "type": "address"
        },
        {
          "indexed": true,
          "internalType": "address",
          "name": "to",
          "type": "address"
        },
        {
          "indexed": true,
          "internalType": "uint256",
          "name": "tokenId",
          "type": "uint256"
        }
      ],
      "name": "Transfer",
      "type": "event"
    },
    {
      "anonymous": false,
      "inputs": [
        {
          "indexed": false,
          "internalType": "address",
          "name": "_to",
          "type": "address"
        },
        {
          "indexed": false,
          "internalType": "uint256",
          "name": "_amount",
          "type": "uint256"
        }
      ],
      "name": "TransferReceived",
      "type": "event"
    },
    {
      "anonymous": false,
      "inputs": [
        {
          "indexed": false,
          "internalType": "address",
          "name": "_from",
          "type": "address"
        },
        {
          "indexed": false,
          "internalType": "address",
          "name": "_desAddr",
          "type": "address"
        },
        {
          "indexed": false,
          "internalType": "uint256",
          "name": "_amount",
          "type": "uint256"
        },
        {
          "indexed": false,
          "internalType": "uint256",
          "name": "balance",
          "type": "uint256"
        }
      ],
      "name": "TransferSent",
      "type": "event"
    },
    {
      "inputs": [
        {
          "internalType": "uint256",
          "name": "newSupply",
          "type": "uint256"
        }
      ],
      "name": "addSupply",
      "outputs": [],
      "stateMutability": "nonpayable",
      "type": "function"
    },
    {
      "inputs": [
        {
          "internalType": "address payable[]",
          "name": "recipients",
          "type": "address[]"
        }
      ],
      "name": "airdrop",
      "outputs": [
        {
          "internalType": "bool",
          "name": "",
          "type": "bool"
        }
      ],
      "stateMutability": "payable",
      "type": "function"
    },
    {
      "inputs": [
        {
          "internalType": "address",
          "name": "to",
          "type": "address"
        },
        {
          "internalType": "uint256",
          "name": "tokenId",
          "type": "uint256"
        }
      ],
      "name": "approve",
      "outputs": [],
      "stateMutability": "nonpayable",
      "type": "function"
    },
    {
      "inputs": [
        {
          "internalType": "address",
          "name": "owner",
          "type": "address"
        }
      ],
      "name": "balanceOf",
      "outputs": [
        {
          "internalType": "uint256",
          "name": "",
          "type": "uint256"
        }
      ],
      "stateMutability": "view",
      "type": "function"
    },
    {
      "inputs": [
        {
          "internalType": "address",
          "name": "newMinter",
          "type": "address"
        }
      ],
      "name": "changeMinter",
      "outputs": [],
      "stateMutability": "nonpayable",
      "type": "function"
    },
    {
      "inputs": [
        {
          "internalType": "address",
          "name": "newOwner",
          "type": "address"
        }
      ],
      "name": "changeOwner",
      "outputs": [],
      "stateMutability": "nonpayable",
      "type": "function"
    },
    {
      "inputs": [
        {
          "internalType": "uint256[]",
          "name": "options",
          "type": "uint256[]"
        }
      ],
      "name": "createVote",
      "outputs": [
        {
          "internalType": "uint256",
          "name": "",
          "type": "uint256"
        }
      ],
      "stateMutability": "nonpayable",
      "type": "function"
    },
    {
      "inputs": [
        {
          "internalType": "address",
          "name": "newMinter",
          "type": "address"
        }
      ],
      "name": "emergencyChangeMinter",
      "outputs": [],
      "stateMutability": "nonpayable",
      "type": "function"
    },
    {
      "inputs": [
        {
          "internalType": "uint256",
          "name": "tokenId",
          "type": "uint256"
        }
      ],
      "name": "getApproved",
      "outputs": [
        {
          "internalType": "address",
          "name": "",
          "type": "address"
        }
      ],
      "stateMutability": "view",
      "type": "function"
    },
    {
      "inputs": [
        {
          "internalType": "address",
          "name": "owner",
          "type": "address"
        },
        {
          "internalType": "address",
          "name": "operator",
          "type": "address"
        }
      ],
      "name": "isApprovedForAll",
      "outputs": [
        {
          "internalType": "bool",
          "name": "",
          "type": "bool"
        }
      ],
      "stateMutability": "view",
      "type": "function"
    },
    {
      "inputs": [
        {
          "internalType": "uint256",
          "name": "poll",
          "type": "uint256"
        },
        {
          "internalType": "uint256",
          "name": "option",
          "type": "uint256"
        }
      ],
      "name": "makeVote",
      "outputs": [
        {
          "internalType": "bool",
          "name": "",
          "type": "bool"
        }
      ],
      "stateMutability": "nonpayable",
      "type": "function"
    },
    {
      "inputs": [
        {
          "internalType": "address[]",
          "name": "forUser",
          "type": "address[]"
        },
        {
          "internalType": "string",
          "name": "tokenURI",
          "type": "string"
        }
      ],
      "name": "mintTokens",
      "outputs": [
        {
          "internalType": "bool",
          "name": "",
          "type": "bool"
        }
      ],
      "stateMutability": "nonpayable",
      "type": "function"
    },
    {
      "inputs": [],
      "name": "name",
      "outputs": [
        {
          "internalType": "string",
          "name": "",
          "type": "string"
        }
      ],
      "stateMutability": "view",
      "type": "function"
    },
    {
      "inputs": [
        {
          "internalType": "uint256",
          "name": "tokenId",
          "type": "uint256"
        }
      ],
      "name": "ownerOf",
      "outputs": [
        {
          "internalType": "address",
          "name": "",
          "type": "address"
        }
      ],
      "stateMutability": "view",
      "type": "function"
    },
    {
      "inputs": [],
      "name": "pollCount",
      "outputs": [
        {
          "internalType": "uint256",
          "name": "",
          "type": "uint256"
        }
      ],
      "stateMutability": "view",
      "type": "function"
    },
    {
      "inputs": [
        {
          "internalType": "address",
          "name": "from",
          "type": "address"
        },
        {
          "internalType": "address",
          "name": "to",
          "type": "address"
        },
        {
          "internalType": "uint256",
          "name": "tokenId",
          "type": "uint256"
        }
      ],
      "name": "safeTransferFrom",
      "outputs": [],
      "stateMutability": "nonpayable",
      "type": "function"
    },
    {
      "inputs": [
        {
          "internalType": "address",
          "name": "from",
          "type": "address"
        },
        {
          "internalType": "address",
          "name": "to",
          "type": "address"
        },
        {
          "internalType": "uint256",
          "name": "tokenId",
          "type": "uint256"
        },
        {
          "internalType": "bytes",
          "name": "data",
          "type": "bytes"
        }
      ],
      "name": "safeTransferFrom",
      "outputs": [],
      "stateMutability": "nonpayable",
      "type": "function"
    },
    {
      "inputs": [
        {
          "internalType": "address",
          "name": "operator",
          "type": "address"
        },
        {
          "internalType": "bool",
          "name": "approved",
          "type": "bool"
        }
      ],
      "name": "setApprovalForAll",
      "outputs": [],
      "stateMutability": "nonpayable",
      "type": "function"
    },
    {
      "inputs": [
        {
          "internalType": "bytes4",
          "name": "interfaceId",
          "type": "bytes4"
        }
      ],
      "name": "supportsInterface",
      "outputs": [
        {
          "internalType": "bool",
          "name": "",
          "type": "bool"
        }
      ],
      "stateMutability": "view",
      "type": "function"
    },
    {
      "inputs": [],
      "name": "symbol",
      "outputs": [
        {
          "internalType": "string",
          "name": "",
          "type": "string"
        }
      ],
      "stateMutability": "view",
      "type": "function"
    },
    {
      "inputs": [
        {
          "internalType": "uint256",
          "name": "tokenId",
          "type": "uint256"
        }
      ],
      "name": "tokenURI",
      "outputs": [
        {
          "internalType": "string",
          "name": "",
          "type": "string"
        }
      ],
      "stateMutability": "view",
      "type": "function"
    },
    {
      "inputs": [],
      "name": "totalMinted",
      "outputs": [
        {
          "internalType": "uint256",
          "name": "",
          "type": "uint256"
        }
      ],
      "stateMutability": "view",
      "type": "function"
    },
    {
      "inputs": [
        {
          "internalType": "address",
          "name": "from",
          "type": "address"
        },
        {
          "internalType": "address",
          "name": "to",
          "type": "address"
        },
        {
          "internalType": "uint256",
          "name": "tokenId",
          "type": "uint256"
        }
      ],
      "name": "transferFrom",
      "outputs": [],
      "stateMutability": "nonpayable",
      "type": "function"
    },
    {
      "inputs": [
        {
          "internalType": "uint256",
          "name": "poll",
          "type": "uint256"
        }
      ],
      "name": "viewVotes",
      "outputs": [
        {
          "internalType": "uint256[]",
          "name": "",
          "type": "uint256[]"
        }
      ],
      "stateMutability": "view",
      "type": "function"
    },
    {
      "inputs": [
        {
          "internalType": "address",
          "name": "",
          "type": "address"
        },
        {
          "internalType": "uint256",
          "name": "",
          "type": "uint256"
        }
      ],
      "name": "voter",
      "outputs": [
        {
          "internalType": "uint256",
          "name": "",
          "type": "uint256"
        }
      ],
      "stateMutability": "view",
      "type": "function"
    }
  ],
  "bytecode": "0x633b9aca0060085560c060405260046080819052631917189960e11b60a09081526200002f916009919062000413565b50600a80546001600160a01b031990811673d885bbc384eac928df787d3cf0b38d7f444d152917909155600c8054909116730249b7e6bcbfa9f27829d69f305eaed53c4aaa5e1790556000600f553480156200008a57600080fd5b50604051620029c9380380620029c9833981016040819052620000ad916200054e565b835184908490620000c690600090602085019062000413565b508051620000dc90600190602084019062000413565b5050600b80546001600160a01b0319163317905550620000fd828262000107565b5050505062000758565b60005b8251811015620001965760006200012d60076200019b60201b62000f9c1760201c565b90506200015d8483815181106200014857620001486200072c565b6020026020010151826200019f60201b60201c565b62000169818462000334565b6200018060076200040a60201b62000fa01760201c565b50806200018d8162000702565b9150506200010a565b505050565b5490565b6001600160a01b038216620001fb5760405162461bcd60e51b815260206004820181905260248201527f4552433732313a206d696e7420746f20746865207a65726f206164647265737360448201526064015b60405180910390fd5b6000818152600260205260409020546001600160a01b031615620002625760405162461bcd60e51b815260206004820152601c60248201527f4552433732313a20746f6b656e20616c7265616479206d696e746564000000006044820152606401620001f2565b6000818152600260205260409020546001600160a01b031615620002c95760405162461bcd60e51b815260206004820152601c60248201527f4552433732313a20746f6b656e20616c7265616479206d696e746564000000006044820152606401620001f2565b6001600160a01b038216600081815260036020908152604080832080546001019055848352600290915280822080546001600160a01b0319168417905551839291907fddf252ad1be2c89b69c2b068fc378daa952ba7f163c4a11628f55a4df523b3ef908290a45050565b6000828152600260205260409020546001600160a01b0316620003b15760405162461bcd60e51b815260206004820152602e60248201527f45524337323155524953746f726167653a2055524920736574206f66206e6f6e60448201526d32bc34b9ba32b73a103a37b5b2b760911b6064820152608401620001f2565b60008281526006602090815260409091208251620003d29284019062000413565b506040518281527ff8e1a15aba9398e019f0b49df1a4fde98ee17ae345cb5f6b5e2c27f5033e8ce79060200160405180910390a15050565b80546001019055565b8280546200042190620006c5565b90600052602060002090601f01602090048101928262000445576000855562000490565b82601f106200046057805160ff191683800117855562000490565b8280016001018555821562000490579182015b828111156200049057825182559160200191906001019062000473565b506200049e929150620004a2565b5090565b5b808211156200049e5760008155600101620004a3565b600082601f830112620004cb57600080fd5b81516001600160401b03811115620004e757620004e762000742565b6020620004fd601f8301601f1916820162000692565b82815285828487010111156200051257600080fd5b60005b838110156200053257858101830151828201840152820162000515565b83811115620005445760008385840101525b5095945050505050565b600080600080608085870312156200056557600080fd5b84516001600160401b03808211156200057d57600080fd5b6200058b88838901620004b9565b9550602091508187015181811115620005a357600080fd5b620005b189828a01620004b9565b955050604087015181811115620005c757600080fd5b8701601f81018913620005d957600080fd5b805182811115620005ee57620005ee62000742565b8060051b620005ff85820162000692565b8281528581019084870183860188018e10156200061b57600080fd5b600095505b848610156200065957805193506001600160a01b03841684146200064357600080fd5b8383526001959095019491870191870162000620565b50809850505050505060608701519150808211156200067757600080fd5b506200068687828801620004b9565b91505092959194509250565b604051601f8201601f191681016001600160401b0381118282101715620006bd57620006bd62000742565b604052919050565b600181811c90821680620006da57607f821691505b60208210811415620006fc57634e487b7160e01b600052602260045260246000fd5b50919050565b60006000198214156200072557634e487b7160e01b600052601160045260246000fd5b5060010190565b634e487b7160e01b600052603260045260246000fd5b634e487b7160e01b600052604160045260246000fd5b61226180620007686000396000f3fe6080604052600436106101665760003560e01c8063729ad39e116100d1578063a6f9dae11161008a578063c87b56dd11610064578063c87b56dd1461042a578063dbe5ef1d1461044a578063e730a8c71461046a578063e985e9c51461048a57600080fd5b8063a6f9dae1146103ca578063b1f56e77146103ea578063b88d4fde1461040a57600080fd5b8063729ad39e1461032a5780639207891d1461033d57806395d89b4114610353578063a002f6ed14610368578063a22cb46514610395578063a2309ff8146103b557600080fd5b806323b872dd1161012357806323b872dd1461026a5780632c4d4d181461028a57806340753a76146102aa57806342842e0e146102ca5780636352211e146102ea57806370a082311461030a57600080fd5b8063011af71d1461016b57806301ffc9a7146101a057806306fdde03146101c0578063081812fc146101e2578063095ea7b31461021a578063153ee9e01461023c575b600080fd5b34801561017757600080fd5b5061018b610186366004611c28565b6104d3565b60405190151581526020015b60405180910390f35b3480156101ac57600080fd5b5061018b6101bb366004611e23565b610566565b3480156101cc57600080fd5b506101d5610591565b6040516101979190611f8d565b3480156101ee57600080fd5b506102026101fd366004611e5d565b610623565b6040516001600160a01b039091168152602001610197565b34801561022657600080fd5b5061023a610235366004611bfc565b61064a565b005b34801561024857600080fd5b5061025c610257366004611bfc565b610760565b604051908152602001610197565b34801561027657600080fd5b5061023a610285366004611b08565b610791565b34801561029657600080fd5b5061023a6102a5366004611ab2565b6107c2565b3480156102b657600080fd5b5061023a6102c5366004611e5d565b61080e565b3480156102d657600080fd5b5061023a6102e5366004611b08565b6108ab565b3480156102f657600080fd5b50610202610305366004611e5d565b6108c6565b34801561031657600080fd5b5061025c610325366004611ab2565b610926565b61018b610338366004611cf6565b6109ac565b34801561034957600080fd5b5061025c600f5481565b34801561035f57600080fd5b506101d5610a89565b34801561037457600080fd5b50610388610383366004611e5d565b610a98565b6040516101979190611f49565b3480156103a157600080fd5b5061023a6103b0366004611bc9565b610b08565b3480156103c157600080fd5b5061025c610b17565b3480156103d657600080fd5b5061023a6103e5366004611ab2565b610b27565b3480156103f657600080fd5b5061025c610405366004611d97565b610b73565b34801561041657600080fd5b5061023a610425366004611b49565b610c98565b34801561043657600080fd5b506101d5610445366004611e5d565b610cd0565b34801561045657600080fd5b5061023a610465366004611ab2565b610de1565b34801561047657600080fd5b5061018b610485366004611e8f565b610e2b565b34801561049657600080fd5b5061018b6104a5366004611acf565b6001600160a01b03918216600090815260056020908152604080832093909416825291909152205460ff1690565b600c546000906001600160a01b031633146105095760405162461bcd60e51b815260040161050090612084565b60405180910390fd5b60075460085410156105535760405162461bcd60e51b8152602060048201526013602482015272151bdd185b08131a5b5a5d0814995858da1959606a1b6044820152606401610500565b61055d8383610fa9565b50600192915050565b60006001600160e01b03198216632483248360e11b148061058b575061058b82611010565b92915050565b6060600080546105a090612168565b80601f01602080910402602001604051908101604052809291908181526020018280546105cc90612168565b80156106195780601f106105ee57610100808354040283529160200191610619565b820191906000526020600020905b8154815290600101906020018083116105fc57829003601f168201915b5050505050905090565b600061062e82611060565b506000908152600460205260409020546001600160a01b031690565b6000610655826108c6565b9050806001600160a01b0316836001600160a01b031614156106c35760405162461bcd60e51b815260206004820152602160248201527f4552433732313a20617070726f76616c20746f2063757272656e74206f776e656044820152603960f91b6064820152608401610500565b336001600160a01b03821614806106df57506106df81336104a5565b6107515760405162461bcd60e51b815260206004820152603d60248201527f4552433732313a20617070726f76652063616c6c6572206973206e6f7420746f60448201527f6b656e206f776e6572206f7220617070726f76656420666f7220616c6c0000006064820152608401610500565b61075b83836110c2565b505050565b600d602052816000526040600020818154811061077c57600080fd5b90600052602060002001600091509150505481565b61079b3382611130565b6107b75760405162461bcd60e51b815260040161050090611fa0565b61075b8383836111ae565b600c546001600160a01b031633146107ec5760405162461bcd60e51b815260040161050090612084565b600c80546001600160a01b0319166001600160a01b0392909216919091179055565b600b546001600160a01b031633146108555760405162461bcd60e51b815260206004820152600a60248201526927b7363c9037bbb732b960b11b6044820152606401610500565b60085481116108a65760405162461bcd60e51b815260206004820152601e60248201527f43616e6e6f7420676f2062656c6f772063757272656e7420737570706c7900006044820152606401610500565b600855565b61075b83838360405180602001604052806000815250610c98565b6000818152600260205260408120546001600160a01b03168061058b5760405162461bcd60e51b8152602060048201526018602482015277115490cdcc8c4e881a5b9d985b1a59081d1bdad95b88125160421b6044820152606401610500565b60006001600160a01b0382166109905760405162461bcd60e51b815260206004820152602960248201527f4552433732313a2061646472657373207a65726f206973206e6f7420612076616044820152683634b21037bbb732b960b91b6064820152608401610500565b506001600160a01b031660009081526003602052604090205490565b60008034116109fd5760405162461bcd60e51b815260206004820152601760248201527f62616c616e636520697320696e73756666696369656e740000000000000000006044820152606401610500565b6000825134610a0c919061211a565b905060005b8351811015610a7f57838181518110610a2c57610a2c6121d4565b60200260200101516001600160a01b03166108fc839081150290604051600060405180830381858888f19350505050158015610a6c573d6000803e3d6000fd5b5080610a77816121a3565b915050610a11565b5060019392505050565b6060600180546105a090612168565b6060600e8281548110610aad57610aad6121d4565b6000918252602091829020018054604080518285028101850190915281815292830182828015610afc57602002820191906000526020600020905b815481526020019060010190808311610ae8575b50505050509050919050565b610b13338383611312565b5050565b6000610b2260075490565b905090565b600c546001600160a01b03163314610b515760405162461bcd60e51b815260040161050090612084565b600b80546001600160a01b0319166001600160a01b0392909216919091179055565b6040516370a0823160e01b8152336004820152600090819030906370a082319060240160206040518083038186803b158015610bae57600080fd5b505afa158015610bc2573d6000803e3d6000fd5b505050506040513d601f19601f82011682018060405250810190610be69190611e76565b11610c255760405162461bcd60e51b815260206004820152600f60248201526e596f752063616e6e6f7420766f746560881b6044820152606401610500565b604080516020808201909252838152600e80546001810182556000919091528151805192937fbb7b4a454dc3493923482f07822329ed19e8244eff582cc204f8554c3620c3fd90920192610c7c9284920190611967565b5050600f54610c8d91506001612102565b600f81905592915050565b610ca23383611130565b610cbe5760405162461bcd60e51b815260040161050090611fa0565b610cca848484846113e1565b50505050565b6060610cdb82611060565b60008281526006602052604081208054610cf490612168565b80601f0160208091040260200160405190810160405280929190818152602001828054610d2090612168565b8015610d6d5780601f10610d4257610100808354040283529160200191610d6d565b820191906000526020600020905b815481529060010190602001808311610d5057829003601f168201915b505050505090506000610d8b60408051602081019091526000815290565b9050805160001415610d9e575092915050565b815115610dd0578082604051602001610db8929190611edd565b60405160208183030381529060405292505050919050565b610dd984611414565b949350505050565b600a546001600160a01b031633146107ec5760405162461bcd60e51b815260206004820152600d60248201526c57726f6e67206164647265737360981b6044820152606401610500565b6000805b336000908152600d6020526040902054811015610f2357336000908152600d60205260409020805485919083908110610e6a57610e6a6121d4565b90600052602060002001541415610eb35760405162461bcd60e51b815260206004820152600d60248201526c105b1c9958591e481d9bdd1959609a1b6044820152606401610500565b600e8481548110610ec657610ec66121d4565b6000918252602090912001548310610f115760405162461bcd60e51b815260206004820152600e60248201526d24b73b30b634b21037b83a34b7b760911b6044820152606401610500565b80610f1b816121a3565b915050610e2f565b50336000908152600d6020908152604082208054600181018255908352912001839055600e805484908110610f5a57610f5a6121d4565b906000526020600020016000018281548110610f7857610f786121d4565b60009182526020822001805491610f8e836121a3565b909155506001949350505050565b5490565b80546001019055565b60005b825181101561075b576000610fc060075490565b9050610fe5848381518110610fd757610fd76121d4565b602002602001015182611488565b610fef8184611613565b610ffd600780546001019055565b5080611008816121a3565b915050610fac565b60006001600160e01b031982166380ac58cd60e01b148061104157506001600160e01b03198216635b5e139f60e01b145b8061058b57506301ffc9a760e01b6001600160e01b031983161461058b565b6000818152600260205260409020546001600160a01b03166110bf5760405162461bcd60e51b8152602060048201526018602482015277115490cdcc8c4e881a5b9d985b1a59081d1bdad95b88125160421b6044820152606401610500565b50565b600081815260046020526040902080546001600160a01b0319166001600160a01b03841690811790915581906110f7826108c6565b6001600160a01b03167f8c5be1e5ebec7d5bd14f71427d1e84f3dd0314c0f7b2291e5b200ac8c7c3b92560405160405180910390a45050565b60008061113c836108c6565b9050806001600160a01b0316846001600160a01b0316148061118357506001600160a01b0380821660009081526005602090815260408083209388168352929052205460ff165b80610dd95750836001600160a01b031661119c84610623565b6001600160a01b031614949350505050565b826001600160a01b03166111c1826108c6565b6001600160a01b0316146111e75760405162461bcd60e51b81526004016105009061203f565b6001600160a01b0382166112495760405162461bcd60e51b8152602060048201526024808201527f4552433732313a207472616e7366657220746f20746865207a65726f206164646044820152637265737360e01b6064820152608401610500565b826001600160a01b031661125c826108c6565b6001600160a01b0316146112825760405162461bcd60e51b81526004016105009061203f565b600081815260046020908152604080832080546001600160a01b03199081169091556001600160a01b0387811680865260038552838620805460001901905590871680865283862080546001019055868652600290945282852080549092168417909155905184937fddf252ad1be2c89b69c2b068fc378daa952ba7f163c4a11628f55a4df523b3ef91a4505050565b816001600160a01b0316836001600160a01b031614156113745760405162461bcd60e51b815260206004820152601960248201527f4552433732313a20617070726f766520746f2063616c6c6572000000000000006044820152606401610500565b6001600160a01b03838116600081815260056020908152604080832094871680845294825291829020805460ff191686151590811790915591519182527f17307eab39ab6107e8899845ad3d59bd9653f200f220920489ca2b5937696c31910160405180910390a3505050565b6113ec8484846111ae565b6113f8848484846116e5565b610cca5760405162461bcd60e51b815260040161050090611fed565b606061141f82611060565b600061143660408051602081019091526000815290565b905060008151116114565760405180602001604052806000815250611481565b80611460846117f2565b604051602001611471929190611edd565b6040516020818303038152906040525b9392505050565b6001600160a01b0382166114de5760405162461bcd60e51b815260206004820181905260248201527f4552433732313a206d696e7420746f20746865207a65726f20616464726573736044820152606401610500565b6000818152600260205260409020546001600160a01b0316156115435760405162461bcd60e51b815260206004820152601c60248201527f4552433732313a20746f6b656e20616c7265616479206d696e746564000000006044820152606401610500565b6000818152600260205260409020546001600160a01b0316156115a85760405162461bcd60e51b815260206004820152601c60248201527f4552433732313a20746f6b656e20616c7265616479206d696e746564000000006044820152606401610500565b6001600160a01b038216600081815260036020908152604080832080546001019055848352600290915280822080546001600160a01b0319168417905551839291907fddf252ad1be2c89b69c2b068fc378daa952ba7f163c4a11628f55a4df523b3ef908290a45050565b6000828152600260205260409020546001600160a01b031661168e5760405162461bcd60e51b815260206004820152602e60248201527f45524337323155524953746f726167653a2055524920736574206f66206e6f6e60448201526d32bc34b9ba32b73a103a37b5b2b760911b6064820152608401610500565b600082815260066020908152604090912082516116ad928401906119b2565b506040518281527ff8e1a15aba9398e019f0b49df1a4fde98ee17ae345cb5f6b5e2c27f5033e8ce79060200160405180910390a15050565b60006001600160a01b0384163b156117e757604051630a85bd0160e11b81526001600160a01b0385169063150b7a0290611729903390899088908890600401611f0c565b602060405180830381600087803b15801561174357600080fd5b505af1925050508015611773575060408051601f3d908101601f1916820190925261177091810190611e40565b60015b6117cd573d8080156117a1576040519150601f19603f3d011682016040523d82523d6000602084013e6117a6565b606091505b5080516117c55760405162461bcd60e51b815260040161050090611fed565b805181602001fd5b6001600160e01b031916630a85bd0160e11b149050610dd9565b506001949350505050565b606060006117ff8361188f565b600101905060008167ffffffffffffffff81111561181f5761181f6121ea565b6040519080825280601f01601f191660200182016040528015611849576020820181803683370190505b5090508181016020015b600019016f181899199a1a9b1b9c1cb0b131b232b360811b600a86061a8153600a850494508461188257611887565b611853565b509392505050565b60008072184f03e93ff9f4daa797ed6e38ed64bf6a1f0160401b83106118ce5772184f03e93ff9f4daa797ed6e38ed64bf6a1f0160401b830492506040015b6d04ee2d6d415b85acef810000000083106118fa576d04ee2d6d415b85acef8100000000830492506020015b662386f26fc10000831061191857662386f26fc10000830492506010015b6305f5e1008310611930576305f5e100830492506008015b612710831061194457612710830492506004015b60648310611956576064830492506002015b600a831061058b5760010192915050565b8280548282559060005260206000209081019282156119a2579160200282015b828111156119a2578251825591602001919060010190611987565b506119ae929150611a25565b5090565b8280546119be90612168565b90600052602060002090601f0160209004810192826119e057600085556119a2565b82601f106119f957805160ff19168380011785556119a2565b828001600101855582156119a257918201828111156119a2578251825591602001919060010190611987565b5b808211156119ae5760008155600101611a26565b600067ffffffffffffffff831115611a5457611a546121ea565b611a67601f8401601f19166020016120ad565b9050828152838383011115611a7b57600080fd5b828260208301376000602084830101529392505050565b600082601f830112611aa357600080fd5b61148183833560208501611a3a565b600060208284031215611ac457600080fd5b813561148181612200565b60008060408385031215611ae257600080fd5b8235611aed81612200565b91506020830135611afd81612200565b809150509250929050565b600080600060608486031215611b1d57600080fd5b8335611b2881612200565b92506020840135611b3881612200565b929592945050506040919091013590565b60008060008060808587031215611b5f57600080fd5b8435611b6a81612200565b93506020850135611b7a81612200565b925060408501359150606085013567ffffffffffffffff811115611b9d57600080fd5b8501601f81018713611bae57600080fd5b611bbd87823560208401611a3a565b91505092959194509250565b60008060408385031215611bdc57600080fd5b8235611be781612200565b915060208301358015158114611afd57600080fd5b60008060408385031215611c0f57600080fd5b8235611c1a81612200565b946020939093013593505050565b60008060408385031215611c3b57600080fd5b823567ffffffffffffffff80821115611c5357600080fd5b818501915085601f830112611c6757600080fd5b81356020611c7c611c77836120de565b6120ad565b8083825282820191508286018a848660051b8901011115611c9c57600080fd5b600096505b84871015611cc8578035611cb481612200565b835260019690960195918301918301611ca1565b5096505086013592505080821115611cdf57600080fd5b50611cec85828601611a92565b9150509250929050565b60006020808385031215611d0957600080fd5b823567ffffffffffffffff811115611d2057600080fd5b8301601f81018513611d3157600080fd5b8035611d3f611c77826120de565b80828252848201915084840188868560051b8701011115611d5f57600080fd5b600094505b83851015611d8b578035611d7781612200565b835260019490940193918501918501611d64565b50979650505050505050565b60006020808385031215611daa57600080fd5b823567ffffffffffffffff811115611dc157600080fd5b8301601f81018513611dd257600080fd5b8035611de0611c77826120de565b80828252848201915084840188868560051b8701011115611e0057600080fd5b600094505b83851015611d8b578035835260019490940193918501918501611e05565b600060208284031215611e3557600080fd5b813561148181612215565b600060208284031215611e5257600080fd5b815161148181612215565b600060208284031215611e6f57600080fd5b5035919050565b600060208284031215611e8857600080fd5b5051919050565b60008060408385031215611ea257600080fd5b50508035926020909101359150565b60008151808452611ec981602086016020860161213c565b601f01601f19169290920160200192915050565b60008351611eef81846020880161213c565b835190830190611f0381836020880161213c565b01949350505050565b6001600160a01b0385811682528416602082015260408101839052608060608201819052600090611f3f90830184611eb1565b9695505050505050565b6020808252825182820181905260009190848201906040850190845b81811015611f8157835183529284019291840191600101611f65565b50909695505050505050565b6020815260006114816020830184611eb1565b6020808252602d908201527f4552433732313a2063616c6c6572206973206e6f7420746f6b656e206f776e6560408201526c1c881bdc88185c1c1c9bdd9959609a1b606082015260800190565b60208082526032908201527f4552433732313a207472616e7366657220746f206e6f6e20455243373231526560408201527131b2b4bb32b91034b6b83632b6b2b73a32b960711b606082015260800190565b60208082526025908201527f4552433732313a207472616e736665722066726f6d20696e636f72726563742060408201526437bbb732b960d91b606082015260800190565b6020808252600f908201526e165bdd4818d85b9b9bdd081b5a5b9d608a1b604082015260600190565b604051601f8201601f1916810167ffffffffffffffff811182821017156120d6576120d66121ea565b604052919050565b600067ffffffffffffffff8211156120f8576120f86121ea565b5060051b60200190565b60008219821115612115576121156121be565b500190565b60008261213757634e487b7160e01b600052601260045260246000fd5b500490565b60005b8381101561215757818101518382015260200161213f565b83811115610cca5750506000910152565b600181811c9082168061217c57607f821691505b6020821081141561219d57634e487b7160e01b600052602260045260246000fd5b50919050565b60006000198214156121b7576121b76121be565b5060010190565b634e487b7160e01b600052601160045260246000fd5b634e487b7160e01b600052603260045260246000fd5b634e487b7160e01b600052604160045260246000fd5b6001600160a01b03811681146110bf57600080fd5b6001600160e01b0319811681146110bf57600080fdfea2646970667358221220ab4dafa09dfd33dca438257f294074229f0be0fae9fcd7ce8511bfd1937e0aa564736f6c63430008070033",
  "linkReferences": {},
  "deployedLinkReferences": {}
}